:020000040000FA
:060000000A128A11F62F1E
:100E0A008316031788018901831603138501870155
:100E1A0088018901061486140615831203138501B5
:100E2A0087018801890108008312031308148810B6
:100E3A0008110230F8004530F700A930F600F60B29
:100E4A00242FF70B242FF80B242F2B2F8312031395
:100E5A000810881408110230F8004530F700A9304C
:100E6A00F600F60B362FF70B362FF80B362F3D2FE1
:100E7A00831203130810881008150230F800453051
:100E8A00F700A930F600F60B482FF70B482FF80B9E
:100E9A00482F4F2F08000A128A1105270A128A11B1
:100EAA008312031306185A2F5B2F7A2F74087504BE
:100EBA00031D602F612F7A2F3130F900F90B632F50
:100ECA00662F83120313061C6B2F6C2F7A2F89014E
:100EDA00F201F301F001F1010A128A1119270A122B
:100EEA008A110130F4000030F500831203138618CA
:100EFA007F2F802FA92F74037504031D852F862F3A
:100F0A00A92F3130F900F90B882F8B2F8312031385
:100F1A00861C902F912FA92F72087304031D962FF8
:100F2A00972F9F2F0130F2070318F30A0030F307B7
:100F3A000514A92F0508F900790785000130F20781
:100F4A000318F30A0030F3070619AC2FAD2FD62F7A
:100F5A0074037504031DB22FB32FD62F3130F90055
:100F6A00F90BB52FB82F83120313061DBD2FBE2F01
:100F7A00D62F70087104031DC32FC42FCC2F013044
:100F8A00F0070318F10A0030F1070714D62F0708F3
:100F9A00F900790787000130F0070318F10A0030D9
:100FAA00F1070830720673040319DC2FDD2FE42FD2
:100FBA00083070067104031DE32FE42F552F083003
:100FCA0072067304031DEA2FEB2FED2F0914EE2F7F
:100FDA00891485018701F401F501552F0A128A1136
:100FEA000028F001F101F201F301F401F501830196
:060FFA000A128A11502FBB
:04400E00D420FF3F7C
:00000001FF
