:020000040000FA
:060000000A128A11FC2F18
:100F40000A128A11B4270A128A118312031306188F
:100F5000AA2FAB2FA52F0A128A11C9270A128A11AC
:100F6000A52F0A128A110028831603178801890108
:100F700083160313850187018801890106148614ED
:100F800006158312031385018601870188018901F3
:100F90000800831203130814881008110430F100AC
:100FA000E430F000F00BD22FF10BD22F00008312AF
:100FB00003130810881408110430F100E430F00025
:100FC000F00BE02FF10BE02F000083120313081049
:100FD00088100815C730F000ED2FF00BEC2FF02F24
:100FE000F12F83120313081088100811A630F000A7
:100FF000F00BF82F0000080083010A128A11A02FBD
:04400E00D420FF3F7C
:00000001FF
