:020000040000FA
:060000000A128A110C280F
:10000800FE00030EF6000A08F7000A128A11D62924
:100018000A128A110F28F001F101F201F301F4012B
:10002800F50183010A128A11CE29FA008B2883125E
:1000380003131F119F111F129F12C5288312031348
:100048001F159F111F129F12C528831203131F111A
:100058009F151F129F12C528831203131F159F1582
:100068001F129F12C528831203131F119F111F16F9
:100078009F12C528831203131F159F111F169F1265
:10008800C528831203131F119F151F169F12C52819
:10009800831203131F159F151F169F12C52883125D
:1000A80003131F119F111F129F16C52883120313D4
:1000B8001F159F111F129F16C528831203131F11A6
:1000C8009F151F129F16C528831203131F159F150E
:1000D8001F129F16C528831203131F119F111F1685
:1000E8009F16C528831203131F159F111F169F16ED
:1000F800C528831203131F119F151F169F16C528A5
:10010800831203131F159F151F169F16C5287A08FB
:10011800F800F9017908003A03199328C5287808E6
:10012800003A03191B28013A03192228033A031934
:100138002928013A03193028073A03193728013AC0
:1001480003193E28033A03194528013A03194C2894
:100158000F3A03195328013A03195A28033A031985
:100168006128013A03196828073A03196F28013AE8
:1001780003197628033A03197D28013A03198428BC
:10018800C528831203139F140800FA000329831655
:100198000317081437298316031788143729831679
:1001A8000317081537298316031788153729831667
:1001B8000317081637298316031788163729831655
:1001C8000317081737298316031788173729831643
:1001D8000317091437298316031789143729831637
:1001E8000317091537298316031789153729831625
:1001F80003170916372983160317891637297A082A
:10020800F800F9017908003A03190B293729780809
:10021800003A0319CB28013A0319CF28033A0319E6
:10022800D328013A0319D728073A0319DB28013ADA
:100238000319DF28033A0319E328013A0319E728C9
:100248000F3A0319EB28013A0319EF28033A031967
:10025800F328013A0319F728073A0319FB28013A4A
:100268000319FF2837290800FB00831203131F1402
:1002780049291F139F135F291F179F135F291F13F6
:100288009F175F291F179F175F297B08A000A101EF
:100298002108003A031951295F292008013A031956
:1002A8003D29033A03194029013A03194329073A1A
:1002B800031946295F297803031D632964296A29DC
:1002C800831603130C17831203130C137A08031DE8
:1002D8006E296F297329831603139F138B2983169D
:1002E80003139F178B29831603131F129F12A32929
:1002F800831603131F169F12A329831603131F12B5
:100308009F16A329831603131F169F16A32979087E
:1003180083120313A000A1012108003A03199529AB
:10032800A3292008003A03197729013A03197C29DF
:10033800033A03198129013A03198629A3290800D8
:100348008316031788018901F801F80AF901FA01EF
:1003580002300A128A1138210A128A1108300A1248
:100368008A11C9200A128A1108300A128A11192022
:100378000A128A11831603138501870188018901EE
:100388000614861406158312031385018701880154
:10039800890108000A128A11A4210A128A110A1274
:1003A8008A110C2877088A00760E8300FE0E7E0ECE
:0203B80009003A
:04400E00D420FF3F7C
:00000001FF
