:020000040000FA
:060000000A128A110C280F
:10000800FE00030EF6000A08F7000A128A11E92812
:100018000A128A110F28F001F101F201F301F4012B
:10002800F50183010A128A11E128FA008B2883124C
:1000380003131F119F111F129F12C5288312031348
:100048001F159F111F129F12C528831203131F111A
:100058009F151F129F12C528831203131F159F1582
:100068001F129F12C528831203131F119F111F16F9
:100078009F12C528831203131F159F111F169F1265
:10008800C528831203131F119F151F169F12C52819
:10009800831203131F159F151F169F12C52883125D
:1000A80003131F119F111F129F16C52883120313D4
:1000B8001F159F111F129F16C528831203131F11A6
:1000C8009F151F129F16C528831203131F159F150E
:1000D8001F129F16C528831203131F119F111F1685
:1000E8009F16C528831203131F159F111F169F16ED
:1000F800C528831203131F119F151F169F16C528A5
:10010800831203131F159F151F169F16C5287A08FB
:10011800F800F9017908003A03199328C5287808E6
:10012800003A03191B28013A03192228033A031934
:100138002928013A03193028073A03193728013AC0
:1001480003193E28033A03194528013A03194C2894
:100158000F3A03195328013A03195A28033A031985
:100168006128013A03196828073A03196F28013AE8
:1001780003197628033A03197D28013A03198428BC
:10018800C52808008316031788018901091008305B
:100198000A128A1119200A128A118316031385017B
:1001A8008701880189010614861406158312031332
:1001B800850187018801890108000A128A11C62071
:1001C8000A128A110A128A110C2877088A00760EF8
:0801D8008300FE0E7E0E0900FB
:04400E00D420FF3F7C
:00000001FF
