:020000040000FA
:060000000A128A110E280D
:10000800FE00030EF9000408FA000A08FB000A12B1
:100018008A115B2A0A128A111128FC01FD01831238
:100028000313A001A101A201A301A401A501830159
:100038000A128A11192A83120313A80073281F11A0
:100048009F111F129F12AD281F159F111F129F127B
:10005800AD281F119F151F129F12AD281F159F1540
:100068001F129F12AD281F119F111F169F12AD2836
:100078001F159F111F169F12AD281F119F151F16C0
:100088009F12AD281F159F151F169F12AD281F110F
:100098009F111F129F16AD281F159F111F129F1623
:1000A800AD281F119F151F129F16AD281F159F15EC
:1000B8001F129F16AD281F119F111F169F16AD28DE
:1000C8001F159F111F169F16AD281F119F151F166C
:1000D8009F16AD281F159F151F169F16AD282808B7
:1000E800A600A7012708003A03197B28AD2826088F
:1000F800003A03192328013A03192828033A031957
:100108002D28013A03193228073A03193728013AEA
:1001180003193C28033A03194128013A03194628D0
:100128000F3A03194B28013A03195028033A0319C7
:100138005528013A03195A28073A03195F28013A42
:1001480003196428033A03196928013A03196E2828
:10015800AD289F140800F200012977308312031399
:1001680087003B2941308312031387003B293B302A
:100178008312031387003B296B3083120313870014
:100188003B294D308312031387003B296E308312BD
:10019800031387003B297E308312031387003B2912
:1001A80043308312031387003B297F3083120313E4
:1001B80087003B296F308312031387003B295F3088
:1001C8008312031387003B297C30831203138700B3
:1001D8003B2936308312031387003B297930831279
:1001E800031387003B293E308312031387003B2902
:1001F8001E308312031387003B297208F000F101B7
:100208007108003A031909293B297008003A0319B3
:10021800B128013A0319B628033A0319BB28013A51
:100228000319C028073A0319C528013A0319CA282F
:10023800033A0319CF28013A0319D4280F3A0319AE
:10024800D928013A0319DE28033A0319E328013AA9
:100258000319E828073A0319ED28013A0319F22887
:10026800033A0319F728013A0319FC283B29080027
:1002780083120313A8007829831603170814AC29DE
:10028800831603178814AC29831603170815AC299D
:10029800831603178815AC29831603170816AC298B
:1002A800831603178816AC29831603170817AC2979
:1002B800831603178817AC29831603170914AC296A
:1002C800831603178914AC29831603170915AC295B
:1002D800831603178915AC29831603170916AC2949
:1002E800831603178916AC292808A600A701270832
:1002F800003A03198029AC292608003A0319402935
:10030800013A03194429033A03194829013A031900
:100318004C29073A03195029013A03195429033A79
:1003280003195829013A03195C290F3A031960295E
:10033800013A03196429033A03196829013A031990
:100348006C29073A03197029013A03197429AC2951
:10035800080083120313AB001F14BE291F139F1339
:10036800D4291F179F13D4291F139F17D4291F1788
:100378009F17D4292B08A900AA012A08003A0319B3
:10038800C629D4292908013A0319B229033A0319BD
:10039800B529013A0319B829073A0319BB29D42901
:1003A8002603031DD829D929DF29831603130C171F
:1003B800831203130C132808031DE329E429E829F1
:1003C800831603139F13002A831603139F17002A0B
:1003D800831603131F129F12182A831603131F165E
:1003E8009F12182A831603131F129F16182A8316A2
:1003F80003131F169F16182A831203132708A90030
:10040800AA012A08003A03190A2A182A2908003AD0
:100418000319EC29013A0319F129033A0319F629BA
:10042800013A0319FB29182A08008B170B178B169A
:100438000B118B150B1083160313161496148112C7
:100448008111011481100115B13083120313810049
:10045800831603178801890183120313A601A60ACC
:10046800A701A80102300A128A11AD210A128A11C5
:1004780008300A128A113C210A128A1108300A121D
:100488008A111F200A128A11831603138501870116
:100498008801890106148614061583120313850141
:1004A800870188018901572A0A128A110E288312A6
:1004B80003130C1F602A612A672A0C131E08F80010
:1004C8007808FD009F140B1D6A2A6B2A922A7D0862
:1004D800F8007808A200870189017C08031D752AA5
:1004E800762A842A7D080A128A11B9220A128A11E8
:1004F8008312031309140130F8007808FC078F2AC7
:100508007D080A128A119C220A128A110130FC0203
:10051800831203138914B13081000B110B087B0877
:100528008A007A088400790E8300FE0E7E0E090088
:10053800F5007508F3007308F7007708F300043036
:100548000310F30CFF3E031DA42A7308F40074087B
:10055800F70077080F39F3007308F60076080A12D7
:100568008A11AF200A128A110800F40074080F39A2
:10057800F3007308F50075080A128A11AF200A12F1
:040588008A110800CC
:04400E00D420FF3F7C
:00000001FF
