:020000040000FA
:060000000A128A110C280F
:10000800FE00030EF1000A08F2000A128A11C32941
:100018000A128A110F28F801F901FA0183010A125C
:100028008A119429F5008828831203131F119F1140
:100038001F129F12C228831203131F159F111F122C
:100048009F12C228831203131F119F151F129F129C
:10005800C228831203131F159F151F129F12C2284F
:10006800831203131F119F111F169F12C228831298
:1000780003131F159F111F169F12C2288312031303
:100088001F119F151F169F12C228831203131F15D5
:100098009F151F169F12C228831203131F119F1149
:1000A8001F129F16C228831203131F159F111F12B8
:1000B8009F16C228831203131F119F151F129F1624
:1000C800C228831203131F159F151F129F16C228DB
:1000D800831203131F119F111F169F16C228831224
:1000E80003131F159F111F169F16C228831203138F
:1000F8001F119F151F169F16C228831203131F1561
:100108009F151F169F16C2287508F300F40174087E
:10011800003A03199028C2287308003A03191828CE
:10012800013A03191F28033A03192628013A03192B
:100138002D28073A03193428013A03193B28033AB2
:1001480003194228013A031949280F3A031950287C
:10015800013A03195728033A03195E28013A03198B
:100168006528073A03196C28013A03197328033ADA
:1001780003197A28013A03198128C2280800F500D2
:10018800FD288316031708143129831603178814CA
:100198003129831603170815312983160317881583
:1001A8003129831603170816312983160317881671
:1001B800312983160317081731298316031788175F
:1001C8003129831603170914312983160317891453
:1001D8003129831603170915312983160317891541
:1001E800312983160317091631298316031789162F
:1001F80031297508F300F4017408003A0319052938
:1002080031297308003A0319C528013A0319C92886
:10021800033A0319CD28013A0319D128073A0319DB
:10022800D528013A0319D928033A0319DD28013AD8
:100238000319E1280F3A0319E528013A0319E928B7
:10024800033A0319ED28013A0319F128073A03196B
:10025800F528013A0319F9283129080083120313F4
:10026800A0001F1443291F139F1359291F179F13F9
:1002780059291F139F1759291F179F1759292008F4
:10028800F600F7017708003A03194B29592976082F
:10029800013A03193729033A03193A29013A03198C
:1002A8003D29073A0319402959297303031D5D297C
:1002B8005E296429831603130C17831203130C1386
:1002C8007508031D682969296D29831603139F136F
:1002D8007D29831603139F177D291F129F129329C7
:1002E8001F169F1293291F129F1693291F169F16D8
:1002F80093297408F600F7017708003A031985294D
:1003080093297608003A03197129013A03197429C7
:10031800033A03197729013A03197A29932908001E
:100328008B170B178316031788018901F301F30A4A
:10033800F401F50102300A128A1132210A128A11D7
:1003480008300A128A11C3200A128A1108300A12C8
:100358008A1116200A128A11831603138501870150
:100368008801890106148614061583120313850172
:10037800870188018901BF290A128A110C28831272
:1003880003130C1FC829C929CF290C131E08F00014
:100398007008FA009F1472088A00710E8300FE0E1E
:0403A8007E0E0900BC
:04400E00D420FF3F7C
:00000001FF
