:020000040000FA
:060000000A128A110E280D
:10000800FE00030EF9000408FA000A08FB000A12B1
:100018008A11AE290A128A111128FC01FD018312E6
:100028000313A601A701A80183010A128A11892ACC
:1000380083120313A20070281F119F111F129F1211
:10004800AA281F159F111F129F12AA281F119F155A
:100058001F129F12AA281F159F151F129F12AA2848
:100068001F119F111F169F12AA281F159F111F16D7
:100078009F12AA281F119F151F169F12AA281F1525
:100088009F151F169F12AA281F119F111F129F1636
:10009800AA281F159F111F129F16AA281F119F1506
:1000A8001F129F16AA281F159F151F129F16AA28F0
:1000B8001F119F111F169F16AA281F159F111F1683
:1000C8009F16AA281F119F151F169F16AA281F15CD
:1000D8009F151F169F16AA282208A000A101210813
:1000E800003A03197828AA282008003A031920287A
:1000F800013A03192528033A03192A28013A031952
:100108002F28073A03193428013A03193928033AE2
:1001180003193E28013A031943280F3A03194828BE
:10012800013A03194D28033A03195228013A0319D1
:100138005728073A03195C28013A03196128033A3A
:1001480003196628013A03196B28AA28AB28AC289A
:10015800831203139F140800F200022977308312D8
:10016800031387003C2941308312031387003C297D
:100178003B308312031387003C296B30831203132F
:1001880087003C294D308312031387003C296E30C9
:100198008312031387003C297E30831203138700E0
:1001A8003C2943308312031387003C297F30831294
:1001B800031387003C296F308312031387003C29FF
:1001C8005F308312031387003C297C3083120313AA
:1001D80087003C2936308312031387003C29793085
:1001E8008312031387003C293E30831203138700D0
:1001F8003C291E308312031387003C297208F00043
:10020800F1017108003A03190A293C297008003ADB
:100218000319B228013A0319B728033A0319BC286D
:10022800013A0319C128073A0319C628013A0319E4
:10023800CB28033A0319D028013A0319D5280F3AD5
:100248000319DA28013A0319DF28033A0319E428C5
:10025800013A0319E928073A0319EE28013A031964
:10026800F328033A0319F828013A0319FD283C2911
:10027800080083120313A2007929831603170814B0
:10028800AD29831603178814AD298316031708159B
:10029800AD29831603178815AD2983160317081689
:1002A800AD29831603178816AD2983160317081777
:1002B800AD29831603178817AD2983160317091468
:1002C800AD29831603178914AD2983160317091559
:1002D800AD29831603178915AD2983160317091647
:1002E800AD29831603178916AD292208A000A1019C
:1002F8002108003A03198129AD292008003A031979
:100308004129013A03194529033A03194929013AB0
:1003180003194D29073A03195129013A0319552997
:10032800033A03195929013A03195D290F3A0319A8
:100338006129013A03196529033A03196929013A20
:1003480003196D29073A03197129013A0319752907
:10035800AD290800831203130C1FB329B429BA2945
:100368000C131E08F8007808FD009F140B1DBD290A
:10037800BE29E129870189012708031DC429C52948
:10038800D3297D080A128A11D4220A128A118312EB
:10039800031309140130F8007808A707DE297D083F
:1003A8000A128A11F1220A128A11013083120313E8
:1003B800A7028914B13081000B110B1CE429E5292F
:1003C800142A2608F8007808FC000608F8007808BF
:1003D800A60003302605F80003307806031DF5292A
:1003E800F629132A03307C05F80002307806031D2D
:1003F800FE29FF29072A0130F8007808A8070130EC
:10040800F8007808880703307C05F8007803031D96
:100418000E2A0F2A132A0130A802013088020B1075
:100428007B088A007A088400790E8300FE0E7E0E0F
:10043800090083120313A5001F142E2A1F139F13EC
:10044800442A1F179F13442A1F139F17442A1F1754
:100458009F17442A2508A300A4012408003A031979
:10046800362A442A2308013A0319222A033A03198F
:10047800252A013A0319282A073A03192B2A442A5C
:100488002003031D482A492A4F2A831603130C17F1
:10049800831203130C132208031D532A542A582AC3
:1004A800831603139F13702A831603139F17702A4A
:1004B800831603131F129F12882A831603131F160D
:1004C8009F12882A831603131F129F16882A8316E1
:1004D80003131F169F16882A831203132108A300EB
:1004E800A4012408003A03197A2A882A2308003A22
:1004F80003195C2A013A0319612A033A0319662A87
:10050800013A03196B2A882A08008B170B178B16D8
:100518000B118B150B1083160313161496148112E6
:100528008111011481100115B13083120313810068
:10053800831603178801890183120313A001A00AF7
:10054800A101A20102300A128A111D220A128A117F
:1005580008300A128A113D210A128A1108300A123B
:100568008A111C200A128A11831603138501870138
:100578008801890106148614061583120313850160
:1005880087018801890128087D02031CCC2ACD2A0D
:10059800CF2A0915C72A0911C72A0A128A110E2853
:1005A800F5007508F3007308F7007708F3000430C6
:1005B8000310F30CFF3E031DDC2A7308F4007408D3
:1005C800F70077080F39F3007308F60076080A1267
:1005D8008A11B0200A128A110800F40074080F3931
:1005E800F3007308F50075080A128A11B0200A1280
:0405F8008A1108005C
:04400E00D420FF3F7C
:00000001FF
