:020000040000FA
:060000000A128A110C280F
:10000800FE00030EF0000A08F1000A168A11902C6F
:100018000A128A110F28FA01FB018313A030840009
:10002800BD300A168A1197240A128A1183010A120E
:100038008A158A2B83160313C7004008F5003F086A
:10004800F4003E08F3003D08F2000A168A11E02683
:100058000A128A11730883160313C4007208C300B6
:10006800CE01CF01CC01CD010130D0000030D1004C
:100078004008F5003F08F4003E08F3003D08F20090
:100088000030F9000030F8000030F7000030F600CA
:100098000A168A115C270A128A110318542855284F
:1000A800C328BF3083120313D4008030D30000303C
:1000B800D2000030D10083160313400883120313C3
:1000C800D800831603133F0883120313D70083163F
:1000D80003133E0883120313D600831603133D0847
:1000E80083120313D5000A128A1180240A128A1176
:1000F80083120313540883160313C00083120313D7
:10010800530883160313BF00831203135208831680
:100118000313BE0083120313510883160313BD0093
:100128002D3083120313EB00831603134708840052
:10013800831203136B0883138000013083160313A3
:10014800CC070318CD0A0030CD07C3280A30F200C7
:100158000030F3004408F5004308F4000A168A1139
:1001680008260A128A11730883160313C40072083A
:10017800C3000130CE070318CF0A0030CF0783161B
:10018800031343084404031DCA28CB28AA28132AAA
:100198004E034F04031DD128D228D7280130D000A0
:1001A8000030D10019290230C5000030C6000329EB
:1001B80083160313510883120313A600831603132F
:1001C800500883120313A5000A30A7000030A800C6
:1001D8000A168A11F4240A128A11831203132608B4
:1001E80083160313D1008312031325088316031300
:1001F800D0000130C5070318C60A0030C6074F08EB
:10020800803A83120313EB00831603134608803ADF
:10021800831203136B02031D152983160313450864
:100228004E02031818291929DC28831603135008CD
:1002380083120313A90083160313510883120313AF
:10024800AA000030AA1BFF30AB00AC0001300A1234
:100258008A15F1200A128A11831203132C08BA0096
:100268002B08B9002A08B8002908B7008316031319
:10027800400883120313BE00831603133F0883123A
:100288000313BD00831603133E0883120313BC0037
:10029800831603133D0883120313BB000A128A1541
:1002A800AD210A128A11831203133A088316031325
:1002B800CB0083120313390883160313CA00831271
:1002C8000313380883160313C9008312031337086E
:1002D80083160313C800510883120313A80083165A
:1002E8000313500883120313A700831603134B0844
:1002F800F5004A08F4004908F3004808F2000A1615
:100308008A11E0260A128A11730883120313A600C1
:100318007208A5000A168A11F4240A128A11831297
:1003280003132508A9002608AA000030AA1BFF30DD
:10033800AB00AC0001300A128A15F1200A128A11AA
:10034800831203132C08BA002B08B9002A08B80036
:100358002908B70083160313400883120313BE004D
:10036800831603133F0883120313BD008316031378
:100378003E0883120313BC00831603133D0883123F
:100388000313BB000A168A11D0240A128A11831299
:1003980003133A0883160313C000831203133908A2
:1003A80083160313BF00831203133808831603133D
:1003B800BE0083120313370883160313BD004B08CE
:1003C800F5004A08F4004908F3004808F2000A1644
:1003D8008A11E0260A128A117208303E831203132A
:1003E800EB00831603134C08470783120313EC0032
:1003F8006C0884006B088313800001308316031394
:10040800CC070318CD0A0030CD07FF30CE070318FC
:10041800CF0AFF30CF070130D0000030D1004E089E
:100428004F04031D182A192ACC282E3083120313CF
:10043800EB00831603134C08470783120313EC00E1
:100448006C0884006B088313800001308316031343
:10045800CC070318CD0A0030CD070130C5000030A5
:10046800C6005D2A83160313510883120313A600DE
:1004780083160313500883120313A5000A30A7003C
:100488000030A8000A168A11F4240A128A1183126D
:100498000313260883160313D100831203132508B8
:1004A80083160313D0000130C5070318C60A0030AD
:1004B800C6074208803A83120313EB00831603131E
:1004C8004608803A831203136B02031D6F2A8316B2
:1004D8000313450841020318722A732A362A831621
:1004E8000313500883120313A9008316031351083A
:1004F80083120313AA000030AA1BFF30AB00AC0024
:1005080001300A128A15F1200A128A118312031384
:100518002C08D4002B08D3002A08D2002908D100BF
:10052800831603134008F5003F08F4003E08F30063
:100538003D08F2000A168A11E0260A128A1172088A
:1005480083120313A9007308AA000030AA1BFF3006
:10055800AB00AC0001300A128A15F1200A128A1188
:10056800831203132C08BA002B08B9002A08B80014
:100578002908B70083160313400883120313BE002B
:10058800831603133F0883120313BD008316031356
:100598003E0883120313BC00831603133D0883121D
:1005A8000313BB000A168A11D0240A128A11831277
:1005B80003133A08D8003908D7003808D600370896
:1005C800D5000A128A1180240A128A118312031391
:1005D800540883160313CB0083120313530883169E
:1005E8000313CA0083120313520883160313C900A6
:1005F80083120313510883160313C8004B08C00065
:100608004A08BF004908BE004808BD004008F50078
:100618003F08F4003E08F3003D08F2000A168A116C
:10062800E0260A128A11013083160313D000003025
:10063800D1004208CF004108CE00692C4E034F0478
:10064800031D272B282B2D2B0130D0000030D10083
:100658006F2B0230C5000030C600592B83160313D8
:10066800510883120313A60083160313500883123C
:100678000313A5000A30A7000030A8000A168A1143
:10068800F4240A128A11831203132608831603130B
:10069800D10083120313250883160313D0000130F9
:1006A800C5070318C60A0030C6074F08803A8312E8
:1006B8000313EB00831603134608803A83120313CF
:1006C8006B02031D6B2B8316031345084E02031898
:1006D8006E2B6F2B322B83160313500883120313D0
:1006E800A90083160313510883120313AA000030CC
:1006F800AA1BFF30AB00AC0001300A128A15F120AA
:100708000A128A11831203132C08BA002B08B900A5
:100718002A08B8002908B700831603134008831273
:100728000313BE00831603133F0883120313BD008F
:10073800831603133E0883120313BC0083160313A6
:100748003D0883120313BB000A128A15AD210A1251
:100758008A11831203133A0883160313CB008312FA
:100768000313390883160313CA00831203133808C6
:1007780083160313C9008312031337088316031360
:10078800C800510883120313A800831603135008E6
:1007980083120313A700831603134B08F5004A08B6
:1007A800F4004908F3004808F2000A168A11E02606
:1007B8000A128A11730883120313A6007208A5008F
:1007C8000A168A11F4240A128A11831203132508BF
:1007D800A9002608AA000030AA1BFF30AB00AC0015
:1007E80001300A128A15F1200A128A1183120313A2
:1007F8002C08BA002B08B9002A08B8002908B70045
:1008080083160313400883120313BE0083160313D1
:100818003F0883120313BD00831603133E08831297
:100828000313BC00831603133D0883120313BB0094
:100838000A168A11D0240A128A11831203133A085D
:1008480083160313C0008312031339088316031396
:10085800BF0083120313380883160313BE008312E4
:100868000313370883160313BD004B08F5004A0825
:10087800F4004908F3004808F2000A168A11E02635
:100888000A128A117208303E83120313EB00831692
:1008980003134C08470783120313EC006C08840009
:1008A8006B0883138000013083160313CC070318E9
:1008B800CD0A0030CD07FF30CE070318CF0AFF302E
:1008C800CF070130D0000030D1004E084F04031D7F
:1008D8006E2C6F2C222B0A3083120313EB00831625
:1008E80003134C08470783120313EC006C088400B9
:1008F8006B0883138000080083120313540880399F
:10090800D9005908DE005408D9005907DA005A08F6
:10091800E400D31F902C912C922C641464080319C2
:10092800962C972CA62C640A031D9B2C9C2CA42C7B
:100938000030D4000030D3000030D2000030D100A5
:10094800D317AE2C0030D4000030D3000030D200D2
:100958000030D10058088039D9005908DE065808F7
:10096800D9005907DA005A08DF00D71FBC2CBD2C64
:10097800BE2C5F145F080319C22CC32CD22C5F0A4B
:10098800031DC72CC82CD02C0030D8000030D7004D
:100998000030D6000030D500D717DA2C0030D80048
:1009A8000030D7000030D6000030D5005F080319AA
:1009B800DE2CDF2CE42C6408031DE32CE42CED2C46
:1009C8000030D4000030D3000030D2000030D10015
:1009D800E02F5108D9005908F20057080A128A1561
:1009E80015200A128A11730883120313EA00720889
:1009F800E9006908D900DA01DB01DC015C08E300E1
:100A08005B08E2005A08E1005908E0006A08D900CA
:100A1800DA01DB01DC015C08E8005B08E7005A0842
:100A2800E6005908E5005208D9005908F2005608AE
:100A38000A128A1515200A128A11730883120313E1
:100A4800EA007208E9006908D900DA01DB01DC0173
:100A58005908E0075A0803110318013E0319352DF8
:100A6800E1075B0803110318013E03193C2DE20757
:100A78005C0803110318013E0319432DE3076A08B4
:100A8800D900DA01DB01DC015908E5075A0803112E
:100A98000318013E0319512DE6075B0803110318DB
:100AA800013E0319582DE7075C0803110318013E9E
:100AB80003195F2DE8075308D9005908F2005508B3
:100AC8000A128A1515200A128A1173088312031351
:100AD800EA007208E9006908D900DA01DB01DC01E3
:100AE8005908E0075A0803110318013E03197D2D20
:100AF800E1075B0803110318013E0319842DE2077F
:100B08005C0803110318013E03198B2DE3076A08DB
:100B1800D900DA01DB01DC015908E5075A0803119D
:100B28000318013E0319992DE6075B080311031802
:100B3800013E0319A02DE7075C0803110318013EC5
:100B48000319A72DE8070830D9000310E00DE10DBF
:100B5800E20DE30DD90BA92D5208D9005908F2006E
:100B680055080A128A1515200A128A117308831269
:100B78000313EA007208E9006908D9006A08DA0074
:100B8800DB01DC015908E0075A0803110318013E8C
:100B98000319CF2DE1075B0803110318013E031960
:100BA800D62DE2075C0803110318013E0319DD2D59
:100BB800E3075108D9005908F20056080A128A15A5
:100BC80015200A128A11730883120313EA007208A7
:100BD800E9006908D9006A08DA00DB01DC01590874
:100BE800E0075A0803110318013E0319FC2DE10719
:100BF8005B0803110318013E0319032EE2075C0882
:100C080003110318013E03190A2EE3070830D9001F
:100C18000310E00DE10DE20DE30DD90B0C2E510888
:100C2800D9005908F20055080A128A1515200A1227
:100C38008A11730883120313EA007208E90069082D
:100C4800D9006A08DA00DB01DC015908E0075A0814
:100C580003110318013E0319322EE1075B08031143
:100C68000318013E0319392EE2075C080311031823
:100C7800013E0319402EE3075208D9005908F20033
:100C880057080A128A1515200A128A117308831246
:100C98000313EA007208E9006908D9006A08DA0053
:100CA800DB01DC015908E5075A0803110318013E66
:100CB80003195F2EE6075B0803110318013E0319A9
:100CC800662EE7075C0803110318013E03196D2E11
:100CD800E8075308D9005908F20056080A128A157D
:100CE80015200A128A11730883120313EA00720886
:100CF800E9006908D9006A08DA00DB01DC01590853
:100D0800E5075A0803110318013E03198C2EE6075C
:100D18005B0803110318013E0319932EE7075C08CB
:100D280003110318013E03199A2EE8075308D90046
:100D38005908F20057080A128A1515200A128A1152
:100D4800730883120313EA007208E9006908D900DE
:100D58006A08DA00DB01DC0108300310D90DDA0D6E
:100D6800DB0DDC0DFF3E031DB12E5908E5075A08BF
:100D780003110318013E0319C22EE6075B0803118D
:100D88000318013E0319C92EE7075C08031103186D
:100D9800013E0319D02EE8076008D9006108DA007F
:100DA8006208DB006308DC0018300310DC0CDB0C85
:100DB800DA0CD90CFF3E031DD92E5908E5075A084D
:100DC80003110318013E0319EA2EE6075B08031115
:100DD8000318013E0319F12EE7075C0803110318F5
:100DE800013E0319F82EE8070830D9000310E00D7A
:100DF800E10DE20DE30DD90BFA2E64085F07D90067
:100E0800DA01DA0D5908823EE9005A080318013E52
:100E1800FF3EEA002C2F0130D9000310E50DE60D46
:100E2800E70DE80DD90B112FE31F1B2F1C2F1D2FCA
:100E380065140130D9000310E00DE10DE20DE30D5A
:100E4800D90B1F2FFF30E9070318EA0AFF30EA071A
:100E5800E71F2F2F302F0F2FDF01E31F342F352FE0
:100E6800512FFF306005D900FF306105DA00FF30EF
:100E78006205DB007F306305DC005C085B045A0414
:100E880059040319482F492F4C2FDF01DF0A512F2E
:100E9800651C4F2F502F512F492F5F080319552FCD
:100EA800562F872F0130E507003003180130E60779
:100EB800003003180130E707003003180130E80755
:100EC800681C672F682F872F6508D9006608DA0025
:100ED8006708DB006808DC000130DD005C0DDC0C15
:100EE800DB0CDA0CD90CDD0B722F5C08E8005B0810
:100EF800E7005A08E6005908E5000130E907031839
:100F0800EA0A0030EA076A08803AFF0080307F0268
:100F1800031D902FFF306902031C932F942F9F2FDE
:100F28007F3083120313E8008030E7000030E600CA
:100F38000030E500D42F831203136A08803AFF00BB
:100F480080307F02031DAA2F013069020318AD2FDC
:100F5800AE2FBA2F003083120313E8000030E700E9
:100F68000030E6000030E500DE01D42F83120313C1
:100F78006908D9005908E400FF30E505FF30E605A7
:100F88007F30E7050030E805641CCB2FCC2FCD2F30
:100F9800E7176408D9000310590CDA005A08E8006A
:100FA8005E08D9005908E8046808D4006708D30027
:100FB8006608D2006508D1000800F5008312031303
:100FC800081075080A168A118A240A128A118312CF
:100FD800031388140630F4003030F300F30BF22FBB
:0E0FE800F40BF22F0000831203138810080090
:10100000F40083120313081474080A168A118A2440
:101010000A128A158312031388140330F300F30BAA
:101020000F28831203138810080083120313A400EF
:10103000A001A1017208F400F5017408A20075086E
:10104000A300241C242825282B282208A0070318E5
:10105000A10A2308A10701300310A20DA30DFF3E32
:10106000031D2C280310A40C2408031D382839283C
:1010700021282108F3002008F2000800F400B0281D
:10108000831203131F119F111F129F12EA2883124C
:1010900003131F159F111F129F12EA2883120313B7
:1010A0001F119F151F129F12EA28831203131F1589
:1010B0009F151F129F12EA28831203131F119F11FD
:1010C0001F169F12EA28831203131F159F111F1664
:1010D0009F12EA28831203131F119F151F169F12D8
:1010E000EA28831203131F159F151F169F12EA2863
:1010F000831203131F119F111F129F16EA288312D8
:1011000003131F159F111F129F16EA288312031342
:101110001F119F151F129F16EA28831203131F1514
:101120009F151F129F16EA28831203131F119F1188
:101130001F169F16EA28831203131F159F111F16EF
:101140009F16EA28831203131F119F151F169F165F
:10115000EA28831203131F159F151F169F16EA28EE
:101160007408F200F3017308003A0319B828EA285A
:101170007208003A03194028013A03194728033A34
:1011800003194E28013A03195528073A03195C2818
:10119000013A03196328033A03196A28013A03192B
:1011A00071280F3A03197828013A03197F28033A66
:1011B00003198628013A03198D28073A0319942840
:1011C000013A03199B28033A0319A228013A03198B
:1011D000A928EA28EB28EC280000831203139F14A7
:1011E000080083120313B10031080319F828F92805
:1011F0000D29AC1FFC28FD280D292909B3002A0957
:10120000B4002B09B5002C09B600B30A0319B40ABF
:101210000319B50A0319B60A15292C08B6002B08BC
:10122000B5002A08B4002908B3002C082B042A04AE
:101230002904031D1C291D2926290030AC0000307B
:10124000AB000030AA000030A900AC299630AD00F8
:101250002D08B20038290130AD002D08B207013049
:101260000310B60CB50CB40CB30CFF3E031D3029B3
:10127000FE303605031D3D293E292B295A29013010
:10128000AD002D08B2070130B3070030031801305C
:10129000B407003003180130B507003003180130DF
:1012A000B60701300310B60CB50CB40CB30CFF3EFE
:1012B000031D5229FF303605031D5F2960293F2990
:1012C0006C290130B2020130AD000310B30DB40D32
:1012D000B50DB60DAD0B6529B51B6F2970297629A3
:1012E00002303202031875297629612932187929CA
:1012F0007A298229FF30B305FF30B4057F30B50568
:10130000FF30B6050310B20C3208AD00AE01AF01DC
:10131000B00118300310AD0DAE0DAF0DB00DFF3E96
:10132000031D8A292D08B3042E08B4042F08B50420
:101330003008B604310803199E299F29A429AC1F3F
:10134000A229A329A429B6173608AC003508AB009A
:101350003408AA003308A9000800831203133E08CA
:101360008039BF003F08C8003E08BF003F07C000EB
:101370004008CF00BD1FBD29BE29BF294F144F080B
:101380000319C329C429D4294F0A031DC829C9290F
:10139000D1290030BE000030BD000030BC0000305C
:1013A000BB00BD17BE01DC290030BE000030BD000F
:1013B0000030BC000030BB003A088039BF003F0855
:1013C000C8063A08BF003F07C0004008D000B91F58
:1013D000EA29EB29EC29501450080319F029F129C6
:1013E000012A500A031DF529F629FE290030BA000A
:1013F0000030B9000030B8000030B700B917BA01AA
:10140000092A0030BA000030B9000030B8000030BE
:10141000B7003A08390438043704031D102A112A8A
:101420002A2A0030BE000030BD000030BC00003071
:10143000BB008030BD047F30BE044808BF003F08B9
:10144000BE043E08BA003D08B9003C08B8003B089D
:10145000B700892B4F08031D2E2A2F2A382A003067
:10146000BA000030B9000030B8000030B700892B56
:101470004F08BF00C0014008C20050083F02C10031
:10148000031CC20341087F3EC90042080318013E05
:10149000003ECA003E08C7003D08C6003C08C50023
:1014A0003B08C4000030BE000030BD000030BC006E
:1014B0000030BB000030CE000030CD000030CC004A
:1014C0000030CB00D001AE2A50080319682A692ADF
:1014D000892A0130BF000310C40DC50DC60DC70D0C
:1014E000BF0B6B2A0130BF000310BB0DBC0DBD0D3F
:1014F000BE0DBF0B742ACE1F7E2A7F2A802A3B1482
:101500000130BF000310CB0DCC0DCD0DCE0DBF0BA8
:10151000822A3A084702031D972A39084602031D0A
:10152000972A38084502031D972A37084402031CEE
:101530009A2A9B2AAA2A4E173708C4023808031C85
:10154000380FC5023908031C390FC6023A08031CBC
:101550003A0FC7020130BF003F08D0071A305002CF
:10156000031CB32AB42A642A4708460445044404E9
:101570000319BB2ABC2ADB2A4B14DB2A0130BF002B
:101580000310BB0DBC0DBD0DBE0DBF0BC02ACE1F81
:10159000CA2ACB2ACC2A3B140130BF000310CB0D42
:1015A000CC0DCD0DCE0DBF0BCE2AFF30C9070318D1
:1015B000CA0AFF30CA07BD1FDE2ADF2ABE2AD001B1
:1015C000CE1FE32AE42A002BFF304B05BF00FF307B
:1015D0004C05C000FF304D05C1007F304E05C200F4
:1015E0004208410440043F040319F72AF82AFB2A61
:1015F000D001D00A002B3B1CFE2AFF2A002BF82A20
:1016000050080319042B052B362B0130BB07003083
:1016100003180130BC07003003180130BD0700304B
:1016200003180130BE073E1C162B172B362B3B0828
:10163000BF003C08C0003D08C1003E08C2000130A8
:10164000C300420DC20CC10CC00CBF0CC30B212B3C
:101650004208BE004108BD004008BC003F08BB0076
:101660000130C9070318CA0A0030CA074A08803A7D
:10167000FF0080307F02031D3F2BFF304902031C17
:10168000422B432B512BFF3083120313C900003030
:10169000CA000030BE000030BD000030BC00003089
:1016A000BB00831203134A08803AFF0080307F0298
:1016B000031D5C2B0130490203185F2B602B6D2B3F
:1016C00083120313C901CA010030BE000030BD00FF
:1016D0000030BC000030BB00C8018312031349086E
:1016E000BF003F08CF004F1C762B772B792BBD17FF
:1016F0007D2B7F30BF003F08BD054F08BF000310A2
:101700003F0CC0004008BE004808BF003F08BE04B0
:10171000212A08008B170B170B108316031788015B
:101720008901F201F301F40102300A168A11A6259B
:101730000A128A150C300A168A1171260A128A15A5
:101740000A300A168A1171260A128A150C300A12FA
:101750008A153E200A128A15831603138501870114
:1017600088018901FF3086008312031385018601F9
:101770008701880189010A168A111B250A128A1518
:101780000A168A119F240A128A15F601F60A0130F8
:101790000A168A11AC240A128A150130F50080302D
:1017A000F6000A168A1160250A128A150830831677
:1017B0000313D2005208F60001300A168A11AC2435
:1017C0000A128A150430F5008030F6000A168A11D4
:1017D00060250A128A150F3083160313D2005208AF
:1017E000F60001300A168A11AC240A128A15073055
:1017F000F5008030F6000A168A1160250A128A1553
:10180000831203130C1F052C062C372C831603138D
:101810002808031D0C2C0D2C222C831203131E08E8
:1018200083160313D2005208FB000A300A128A15ED
:101830003E200A128A15013083160313D200520883
:10184000A807342C831203131E0883160313D20037
:101850005208FA000C300A128A153E200A128A1524
:10186000013083160313A802831203130C130030F4
:1018700083160313A7000030A6000030A500003037
:10188000A4000030A3000030A2000030A10000300E
:10189000A000403083120313D400A030D3000030E6
:1018A000D2000030D1004330BA007F30B9000030A0
:1018B000B8000030B7007B0883160313D200D301B1
:1018C000D401D501550883120313AC00831603130A
:1018D000540883120313AB008316031353088312B7
:1018E0000313AA0083160313520883120313A900DB
:1018F00001300A128A15F1200A128A158312031385
:101900002C08BE002B08BD002A08BC002908BB001B
:101910000A128A15AD210A128A15831203133A0896
:10192000D8003908D7003808D6003708D5000A1281
:101930008A1180240A128A1583120313540883160D
:101940000313A70083120313530883160313A6007F
:1019500083120313520883160313A5008312031383
:10196000510883160313A4002708C0002608BF00EF
:101970002508BE002408BD000230C1000030C200AE
:10198000B3300A128A111E200A128A1540308312BF
:101990000313D400A030D3000030D2000030D100B7
:1019A0004330BA007F30B9000030B8000030B700D3
:1019B0007A0883160313D200D301D401D501550848
:1019C00083120313AC00831603135408831203130A
:1019D000AB0083160313530883120313AA00831664
:1019E0000313520883120313A90001300A128A1547
:1019F000F1200A128A15831203132C08BE002B084B
:101A0000BD002A08BC002908BB000A128A15AD21B6
:101A10000A128A15831203133A08D8003908D7002E
:101A20003808D6003708D5000A128A1180240A1215
:101A30008A1583120313540883160313A300831219
:101A40000313530883160313A200831203135208CF
:101A500083160313A1008312031351088316031383
:101A6000A0002308C0002208BF002108BE002008F3
:101A7000BD000230C1000030C200A9300A128A1134
:101A80001E200A128A15F601F60A02300A168A1179
:101A9000AC240A128A15B330F5000030F6000A169D
:101AA0008A1160250A128A15083083160313D200A2
:101AB0005208F60002300A168A11AC240A128A155E
:101AC000A930F5000030F6000A168A1160250A12C6
:101AD0008A151A3083160313D300F730D200D20BC5
:101AE0006F2DD30B6F2D742DC52B0A128A110C2864
:101AF0007508803983120313A0002008A800750818
:101B0000A0002007A1002108AA00F41F882D892D1C
:101B10008A2D2A142A0803198E2D8F2D9F2D2A0A0B
:101B2000031D932D942D9C2D0030F5000030F40002
:101B30000030F3000030F200F417F501A72D00305B
:101B4000F5000030F4000030F3000030F2007908B6
:101B50008039A0002008A900290828060319B12D02
:101B6000B22DB32D28177908A0002007A100210865
:101B7000A900F81FBC2DBD2DBE2D2914290803195D
:101B8000C22DC32DD32D290A031DC72DC82DD02D3D
:101B90000030F9000030F8000030F7000030F600A7
:101BA000F817F901DB2D0030F9000030F8000030A3
:101BB000F7000030F6002A0829020318E02DE12D75
:101BC000252E281FE42DE52DE92D8030A0002008CA
:101BD000A8062A08A0002008AB002908A0002008B9
:101BE000AA002B08A0002008A9007208A000200865
:101BF000AB007608A0002008F2002B08A000200807
:101C0000F6007308A0002008AB007708A0002008A9
:101C1000F3002B08A0002008F7007408A00020089B
:101C2000AB007808A0002008F4002B08A0002008D2
:101C3000F8007508A0002008AB007908A000200873
:101C4000F5002B08A0002008F900AB012908A0002E
:101C5000A1012108A3002A082002A200031CA3035B
:101C60002308803AFF0080307F02031D392E1A308E
:101C70002202031C3C2E3D2E7A2E75087404730438
:101C80007204031D442E462E0130472E003083126D
:101C90000313A0002008AB000030F5000030F40072
:101CA0000030F3000030F2002908A0002008AA004C
:101CB000822E2B1C5C2E5D2E662E2B08A00003109E
:101CC000200C0138A1002108AB00682E0310AB0CDA
:101CD000721C6B2E6C2E6D2EAB170130A000750D93
:101CE000F50CF40CF30CF20CA00B6F2E0130A000DD
:101CF0002008AA078312031329082A02031C812E35
:101D0000822E592E281B852E862ED12E2A08031DA1
:101D10008A2E8B2E942E0030F5000030F400003017
:101D2000F3000030F200FF2F7608F2077708031166
:101D30000318013E03199D2EF307780803110318B9
:101D4000013E0319A42EF407790803110318013E7C
:101D50000319AB2EF507751CAE2EAF2E852F2B1C4D
:101D6000B22EB32EBC2E2B08A0000310200C01387D
:101D7000A1002108AB00BE2E0310AB0C721CC12EBB
:101D8000C22EC32EAB170130A000750DF50CF40C5C
:101D9000F30CF20CA00BC52E0130A0002008AA07FE
:101DA000852F7508803AFF007908803A7F02031D6D
:101DB000E32E78087402031DE32E77087302031DD7
:101DC000E32E760872020318E62EE72E3F2FFF302F
:101DD000A000FF30A100FF30A200FF30A300760872
:101DE000A4007708A5007808A6007908A700720863
:101DF000A4027308031C730FFE2EFF2EA5027408A5
:101E0000031C740F042F052FA6027508031C750F01
:101E10000A2F0B2FA7022408A00725080318250F57
:101E2000122F132FA10726080318260F182F192F7A
:101E3000A20727080318270AA3072308F50022088A
:101E4000F4002108F3002008F2008030A0002008F0
:101E5000A806AB09AB0A2B08031D2F2F302F4D2FDF
:101E60000130F207003003180130F3070030031887
:101E70000130F407003003180130F5074D2F7608C4
:101E8000F2027708031C770FF3027808031C780F1F
:101E9000F4027908031C790FF502750874047304C1
:101EA0007204031D542F552F812F2B08031D592F0A
:101EB0005A2F812F0030F5000030F4000030F3007D
:101EC0000030F200FF2F0130A0000310F20DF30DDF
:101ED000F40DF50DA00B652FAB1F6F2F702F712F19
:101EE00072142B1C742F752F782F0314AB0D7A2FBF
:101EF0000310AB0D2A0803197E2F7F2F812F01308D
:101F0000AA02F41F842F852F632FA901AB1F892FED
:101F10008A2F982F2B087F3903198F2F902F932FFB
:101F2000A901A90A982F721C962F972F982F902FEE
:101F3000290803199C2F9D2FD12F0130F207003063
:101F400003180130F307003003180130F4070030A4
:101F500003180130F507751CAE2FAF2FD12F720873
:101F6000A0007308A1007408A2007508A300013046
:101F7000A400230DA30CA20CA10CA00CA40BB92F40
:101F80002308F5002208F4002108F3002008F200DD
:101F90002A0A0319CC2FCD2FD12F0130A000200801
:101FA000AA072A0A0319D52FD62FDB2F2A08031DCB
:101FB000DA2FDB2FE92F0030F5000030F40000307D
:101FC000F3000030F2002A08031DE72FE82FE92F65
:101FD000A8012A1CEC2FED2FEF2FF417F32F7F30E1
:101FE000A0002008F4052A08A0000310200CA1007E
:101FF0002108F500A81FFD2FFE2FFF2FF517080061
:10200000FF1B0A2883137F1883170008840A03190B
:10201000FF0A080010308A000408840A820700348E
:10202000503431340034503432340034503443347A
:0220300000347A
:10291400F2007208831203138500080071088A000C
:10292400700E8300FE0E7E0E090064008001840A8E
:102934000406031900340406982C00300A128A1184
:10294400E1270A168A1101300A128A11E1270A16B0
:102954008A110800F8007803031DB12CB22CBE2C98
:1029640076087F3EF7007708F90079080A128A1181
:10297400E1270A168A11CF2C02307806031DC32CD6
:10298400C42CCF2C7608BF3EF7007708F9007908ED
:102994000A128A11E1270A168A110800803083126C
:1029A4000313BA063E08F5003D08F4003C08F300A2
:1029B4003B08F2003A08F9003908F8003808F70033
:1029C4003708F6000A128A1578250A168A1175083E
:1029D40083120313BA007408B9007308B8007208AC
:1029E400B7000800F801F90183120313251CFB2C1E
:1029F400FC2C022D2708F8070318F90A2808F90700
:102A040001300310A70DA80DFF3E031D032D013057
:102A14000310A60CA50CFF3E031D0A2D2508260451
:102A2400031D152D162DF62C7908A6007808A5008F
:102A3400080000300A168A118A240A168A111A30EC
:102A4400F700F830F600F60B252DF70B252D0000C6
:102A540030300A128A11E1270A168A110730F7006A
:102A64007D30F600F60B342DF70B342D30300A127E
:102A74008A11E1270A168A110F30F7004730F60051
:102A8400F60B422DF70B422D472D30300A128A11D6
:102A9400E1270A168A1138300A128A11E1270A1628
:102AA4008A110C300A128A11E1270A168A1106309B
:102AB4000A128A11E1270A168A11080083120313E5
:102AC400A001A101892D20087507F8007608F700F8
:102AD4000318F70AA01F6F2DF7037708F900790888
:102AE40083120313FF00780884000A168A11002059
:102AF4000A168A110A128A1500200A168A11013050
:102B040083120313A0070318A10A0030A1072008A9
:102B14007507F8007608F7000318F70AA01F932D2D
:102B2400F7037708F900790883120313FF00780884
:102B340084000A168A1100200A168A11003A031D1D
:102B4400A42DA52D652D0800F700831203131F146F
:102B5400B72D1F139F13CD2D1F179F13CD2D1F139B
:102B64009F17CD2D1F179F17CD2D7708F500F60160
:102B74007608003A0319BF2DCD2D7508013A0319C3
:102B8400AB2D033A0319AE2D013A0319B12D073ABF
:102B94000319B42DCD2D7203031DD12DD22DD82DA3
:102BA400831603130C17831203130C137408031DE9
:102BB400DC2DDD2DE12D831603139F13F12D8316D8
:102BC40003139F17F12D1F129F12072E1F169F121A
:102BD400072E1F129F16072E1F169F16072E730807
:102BE400F500F6017608003A0319F92D072E750849
:102BF400003A0319E52D013A0319E82D033A0319A4
:102C0400EB2D013A0319EE2D072E0800831203134E
:102C1400A101F31F0E2E0F2E162EF209F309F20A4C
:102C24000319F30AA101A10AF51F192E1A2E232E46
:102C3400F409F509F40A0319F50A0130F6007608D7
:102C4400A106A201A3017208730403192A2E2B2ED4
:102C5400622EA001A00A392E01300310F20DF30DEB
:102C6400FF3E031D2F2E0130F6007608A007F31F48
:102C74003C2E3D2E2E2E01300310A20DA30DFF3E3F
:102C8400031D3E2E73087502031D4A2E720874023A
:102C9400031C4D2E4E2E552E7208F4027308031C8D
:102CA400F503F502221401300310F30CF20CFF3E7D
:102CB400031D562E0130A002031D612E622E3D2EEF
:102CC40021080319662E672E6C2EA209A309A20AF5
:102CD4000319A30A2308F3002208F2000800F400F1
:102CE400AB2E831603170814DF2E831603178814DC
:102CF400DF2E831603170815DF2E83160317881596
:102D0400DF2E831603170816DF2E83160317881683
:102D1400DF2E831603170817DF2E83160317881771
:102D2400DF2E831603170914DF2E83160317891465
:102D3400DF2E831603170915DF2E83160317891553
:102D4400DF2E831603170916DF2E83160317891641
:102D5400DF2E7408F200F3017308003A0319B32E4E
:102D6400DF2E7208003A0319732E013A0319772EE5
:102D7400033A03197B2E013A03197F2E073A0319EC
:102D8400832E013A0319872E033A03198B2E013A35
:102D940003198F2E0F3A0319932E013A0319972E14
:102DA400033A03199B2E013A03199F2E073A03197C
:102DB400A32E013A0319A72EDF2E08000310740D69
:102DC400750D83120313A0002008F7007708031D74
:102DD400EC2EED2EF62E0030F5000030F40000301D
:102DE400F3000030F2005B2F7208A0007308A1000A
:102DF4007408A2007508A3001F300310A30CA20CD2
:102E0400A10CA00CFF3E031DFF2E2008A4002408E3
:102E1400F600F417FF30F205FF30F305FF30F40538
:102E24000030F5059630F702F71F192F1A2F342FAB
:102E34007708803A973E0318202F212F222FED2E5A
:102E440001300310F50CF40CF30CF20CFF3E031DDF
:102E5400232F0130A0002008F707031D322F332F42
:102E6400222F4B2F20307702031C392F3A2F462F65
:102E7400ED2E0130A0000310F20DF30DF40DF50D4D
:102E8400A00B3D2F0130F7027708031D4A2F4B2F6B
:102E94003B2F760803194F2F502F5B2FF209F309AC
:102EA400F409F509F20A0319F30A0319F40A0319D8
:102EB400F50A08000030720583120313A0000030E5
:102EC4007305A10080307405A2007F307505A3004E
:102ED4002308220421042004031D712F722F7A2F4A
:102EE4000030F5000030F4000030F3000030F20050
:102EF40000307605A00000307705A1008030780509
:102F0400A2007F307905A3002308220421042004B1
:102F1400031D8D2F8E2F962F0030F9000030F800FE
:102F24000030F7000030F600F51F992F9A2FBE2FBE
:102F34000030A0000030A1000030A2008030A300C7
:102F44007208A0027308031C730FA92FAA2FA102F1
:102F54007408031C740FAF2FB02FA2027508031C52
:102F6400750FB52FB62FA3022308F5002208F4002D
:102F74002108F3002008F200F91FC12FC22FE62F09
:102F84000030A0000030A1000030A2008030A30077
:102F94007608A0027708031C770FD12FD22FA10245
:102FA4007808031C780FD72FD82FA2027908031CA6
:102FB400790FDD2FDE2FA3022308F9002208F80081
:102FC4002108F7002008F6008030F5068030F90665
:102FD40079087502031DF82F78087402031DF82F71
:102FE40077087302031DF82F760872020318FB2F6B
:0C2FF400FC2FFE2F0310FF2F0314080019
:04400E00D420FF3F7C
:00000001FF
