:020000040000FA
:060000000A128A11EF2F25
:10000C00F30083120313081073080A168A11EF22E7
:10001C000A128A118312031388140630F20030304E
:10002C00F100F10B1728F20B1728000083120313B1
:10003C00881008000310720D730DF4007408FA0098
:10004C007A08031D2A282B2834280030F3000030AE
:10005C00F2000030F1000030F00099287008F40034
:10006C007108F5007208F6007308F7001F300310D2
:10007C00F70CF60CF50CF40CFF3E031D3D28740830
:10008C00F8007808F900F217FF30F005FF30F105A1
:10009C00FF30F2050030F3059630FA02FA1F5728AC
:1000AC00582872287A08803A973E03185E285F28F1
:1000BC0060282B2801300310F30CF20CF10CF00C1F
:1000CC00FF3E031D61280130F4007408FA07031D7C
:1000DC00702871286028892820307A02031C772820
:1000EC00782884282B280130F4000310F00DF10D32
:1000FC00F20DF30DF40B7B280130FA027A08031D84
:10010C00882889287928790803198D288E28992818
:10011C00F009F109F209F309F00A0319F10A0319BC
:10012C00F20A0319F30A0800831203134F088039EB
:10013C00D4005408D9004F08D4005407D5005508F2
:10014C00DF00CE1FAA28AB28AC285F145F08031968
:10015C00B028B128C0285F0A031DB528B628BE28D0
:10016C000030CF000030CE000030CD000030CC008D
:10017C00CE17C8280030CF000030CE000030CD00A4
:10018C000030CC0053088039D4005408D9065308E9
:10019C00D4005407D5005508DE00D21FD628D72826
:1001AC00D8285E145E080319DC28DD28EC285E0ACA
:1001BC00031DE128E228EA280030D3000030D200E9
:1001CC000030D1000030D000D217F4280030D3001A
:1001DC000030D2000030D1000030D0005E0803198E
:1001EC00F828F928FE285F08031DFD28FE2807299A
:1001FC000030CF000030CE000030CD000030CC00FD
:10020C00FA2B4C08D4005408F00052080A168A1134
:10021C007C230A128A11710883120313E5007008FB
:10022C00E4006408D400D501D601D7015708DD00DD
:10023C005608DC005508DB005408DA006508D400C9
:10024C00D501D601D7015708E3005608E20055083E
:10025C00E1005408E0004D08D4005408F0005108A7
:10026C000A168A117C230A128A117108831203134D
:10027C00E5007008E4006408D400D501D601D7016C
:10028C005408DA07550803110318013E03194F29C6
:10029C00DB07560803110318013E03195629DC0726
:1002AC00570803110318013E03195D29DD07650882
:1002BC00D400D501D601D7015408E0075508031125
:1002CC000318013E03196B29E107560803110318A3
:1002DC00013E03197229E207570803110318013E66
:1002EC0003197929E3074E08D4005408F00050088C
:1002FC000A168A117C230A128A11710883120313BD
:10030C00E5007008E4006408D400D501D601D701DB
:10031C005408DA07550803110318013E03199729ED
:10032C00DB07560803110318013E03199E29DC074D
:10033C00570803110318013E0319A529DD076508A9
:10034C00D400D501D601D7015408E0075508031194
:10035C000318013E0319B329E107560803110318CA
:10036C00013E0319BA29E207570803110318013E8D
:10037C000319C129E3070830D4000310DA0DDB0D93
:10038C00DC0DDD0DD40BC3294D08D4005408F0004E
:10039C0050080A168A117C230A128A1171088312DA
:1003AC000313E5007008E4006408D4006508D50068
:1003BC00D601D7015408DA07550803110318013E7A
:1003CC000319E929DB07560803110318013E031929
:1003DC00F029DC07570803110318013E0319F7290C
:1003EC00DD074C08D4005408F00051080A168A1195
:1003FC007C230A128A11710883120313E50070081A
:10040C00E4006408D4006508D500D601D70154086F
:10041C00DA07550803110318013E0319162ADB07E6
:10042C00560803110318013E03191D2ADC0757084F
:10043C0003110318013E0319242ADD070830D400E8
:10044C000310DA0DDB0DDC0DDD0DD40B262A4C0868
:10045C00D4005408F00050080A168A117C230A12A2
:10046C008A11710883120313E5007008E400640814
:10047C00D4006508D500D601D7015408DA07550811
:10048C0003110318013E03194C2ADB07560803110C
:10049C000318013E0319532ADC07570803110318EC
:1004AC00013E03195A2ADD074D08D4005408F00008
:1004BC0052080A168A117C230A128A1171088312B7
:1004CC000313E5007008E4006408D4006508D50047
:1004DC00D601D7015408E007550803110318013E53
:1004EC000319792AE107560803110318013E031971
:1004FC00802AE207570803110318013E0319872AC3
:10050C00E3074E08D4005408F00051080A168A116B
:10051C007C230A128A11710883120313E5007008F8
:10052C00E4006408D4006508D500D601D70154084E
:10053C00E007550803110318013E0319A62AE10729
:10054C00560803110318013E0319AD2AE207570898
:10055C0003110318013E0319B42AE3074E08D40013
:10056C005408F00052080A168A117C230A128A11C8
:10057C00710883120313E5007008E4006408D400CA
:10058C006508D500D601D70108300310D40DD50D60
:10059C00D60DD70DFF3E031DCB2A5408E007550896
:1005AC0003110318013E0319DC2AE1075608031155
:1005BC000318013E0319E32AE20757080311031835
:1005CC00013E0319EA2AE3075A08D4005B08D50058
:1005DC005C08D6005D08D70018300310D70CD60C79
:1005EC00D50CD40CFF3E031DF32A5408E007550824
:1005FC0003110318013E0319042BE10756080311DC
:10060C000318013E03190B2BE207570803110318BB
:10061C00013E0319122BE3070830D4000310DA0D46
:10062C00DB0DDC0DDD0DD40B142B5F085E07D40045
:10063C00D501D50D5408823EE40055080318013E3F
:10064C00FF3EE500462B0130D4000310E00DE10D18
:10065C00E20DE30DD40B2B2BDD1F352B362B372B5B
:10066C0060140130D4000310DA0DDB0DDC0DDD0D50
:10067C00D40B392BFF30E4070318E50AFF30E507EC
:10068C00E21F492B4A2B292BDE01DD1F4E2B4F2B52
:10069C006B2BFF305A05D400FF305B05D500FF30C3
:1006AC005C05D6007F305D05D7005708560455040D
:1006BC0054040319622B632B662BDE01DE0A6B2BB1
:1006CC00601C692B6A2B6B2B632B5E0803196F2B39
:1006DC00702BA12B0130E007003003180130E1072B
:1006EC00003003180130E207003003180130E30733
:1006FC00631C812B822BA12B6008D4006108D500D0
:10070C006208D6006308D7000130D800570DD70C0B
:10071C00D60CD50CD40CD80B8C2B5708E3005608F0
:10072C00E2005508E1005408E0000130E40703182A
:10073C00E50A0030E5076508803AFF0080307F024B
:10074C00031DAA2BFF306402031CAD2BAE2BB92B5F
:10075C007F3083120313E3008030E2000030E100AD
:10076C000030E000EE2B831203136508803AFF0083
:10077C0080307F02031DC42B013064020318C72B89
:10078C00C82BD42B003083120313E3000030E2009B
:10079C000030E1000030E000D901EE2B831203138E
:1007AC006408D4005408DF00FF30E005FF30E10599
:1007BC007F30E2050030E3055F1CE52BE62BE72BD1
:1007CC00E2175F08D4000310540CD5005508E30061
:1007DC005908D4005408E3046308CF006208CE0023
:1007EC006108CD006008CC00080083160313D60006
:1007FC00831203136908F3006808F2006708F1001C
:10080C006608F0000A128A1120200A128A11710857
:10081C0083160313CD007008CC00D701D801D40186
:10082C00D5010130D9000030DA00831203136908B6
:10083C00F3006808F2006708F1006608F000003069
:10084C00F7000030F6000030F5000030F4000A1616
:10085C008A11EF250A128A110318352C362C842C98
:10086C00BF3083120313CF008030CE000030CD0098
:10087C000030CC006908D3006808D2006708D100AA
:10088C006608D0000A128A119A200A128A11831261
:10089C0003134F08E9004E08E8004D08E7004C0828
:1008AC00E6002D30EC0083160313560884008312E7
:1008BC0003136C0883138000013083160313D407D1
:1008CC000318D50A0030D507842C0A30F00000300C
:1008DC00F1004D08F3004C08F2000A168A11192594
:1008EC000A128A11710883160313CD007008CC000C
:1008FC000130D7070318D80A0030D8078316031322
:10090C004C084D04031D8B2C8C2C6B2CA82D5703E1
:10091C005804031D922C932C982C0130D9000030D4
:10092C00DA00DA2C0230CE000030CF00C42C831653
:10093C0003135A0883120313A100831603135908D7
:10094C0083120313A0000A30A2000030A3000A1681
:10095C008A11A3230A128A11831203132108831606
:10096C000313DA0083120313200883160313D90030
:10097C000130CE070318CF0A0030CF075808803A51
:10098C0083120313EC00831603134F08803A83126F
:10099C0003136C02031DD62C831603134E08570247
:1009AC000318D92CDA2C9D2C8316031359088312A7
:1009BC000313A400831603135A0883120313A50010
:1009CC000030A51BFF30A600A70001300A168A11C3
:1009DC0044270A128A11831203132708B50026082C
:1009EC00B4002508B3002408B2006908B9006808EF
:1009FC00B8006708B7006608B6000A128A158E2080
:100A0C000A128A1183120313350883160313D300B9
:100A1C0083120313340883160313D20083120313B7
:100A2C00330883160313D100831203133208831681
:100A3C000313D0005A0883120313A3008316031365
:100A4C00590883120313A200831603135308F300EF
:100A5C005208F2005108F1005008F0000A128A11F5
:100A6C0020200A128A11710883120313A100700846
:100A7C00A0000A168A11A3230A128A1183120313E7
:100A8C002008A4002108A5000030A51BFF30A600FB
:100A9C00A70001300A168A1144270A128A11831200
:100AAC0003132708B5002608B4002508B300240852
:100ABC00B2006908B9006808B8006708B700660892
:100ACC00B6000A168A1158230A128A1183120313CC
:100ADC003508E9003408E8003308E7003208E6007E
:100AEC00831603135308F3005208F2005108F10067
:100AFC005008F0000A128A1120200A128A1170087C
:100B0C00303E83120313EC0083160313540856076C
:100B1C0083120313ED006D0884006C0883138000AE
:100B2C00013083160313D4070318D50A0030D507F8
:100B3C00FF30D7070318D80AFF30D8070130D90087
:100B4C000030DA0057085804031DAD2DAE2D8D2C46
:100B5C002E3083120313EC0083160313540856072C
:100B6C0083120313ED006D0884006C08831380005E
:100B7C00013083160313D4070318D50A0030D507A8
:100B8C000130CE000030CF00F22D831603135A082B
:100B9C0083120313A1008316031359088312031342
:100BAC00A0000A30A2000030A3000A168A11A32369
:100BBC000A128A1183120313210883160313DA0015
:100BCC0083120313200883160313D9000130CE07B8
:100BDC000318CF0A0030CF07831203136B08803A37
:100BEC00EC00831603134F08803A831203136C0234
:100BFC00031D062E831603134E08831203136A0279
:100C0C000318092E0A2ECB2D8316031359088312B1
:100C1C000313A400831603135A0883120313A500AD
:100C2C000030A51BFF30A600A70001300A168A1160
:100C3C0044270A128A11831203132708CF002608AF
:100C4C00CE002508CD002408CC006908F300680804
:100C5C00F2006708F1006608F0000A128A112020E1
:100C6C000A128A11700883120313A4007108A500DC
:100C7C000030A51BFF30A600A70001300A168A1110
:100C8C0044270A128A11831203132708B500260879
:100C9C00B4002508B3002408B2006908B90068083C
:100CAC00B8006708B7006608B6000A168A11582300
:100CBC000A128A11831203133508D3003408D200A8
:100CCC003308D1003208D0000A128A119A200A1275
:100CDC008A11831203134F0883160313D300831254
:100CEC0003134E0883160313D200831203134D080B
:100CFC0083160313D100831203134C0883160313BA
:100D0C00D000530883120313E9008316031352080F
:100D1C0083120313E8008316031351088312031381
:100D2C00E70083160313500883120313E6006908C7
:100D3C00F3006808F2006708F1006608F0000A1278
:100D4C008A1120200A128A11013083160313D9004C
:100D5C000030DA00831203136B0883160313D800D8
:100D6C00831203136A0883160313D700D82F570373
:100D7C005804031DC22EC32EC82E0130D9000030DA
:100D8C00DA000A2F0230CE000030CF00F42E83168A
:100D9C0003135A0883120313A10083160313590873
:100DAC0083120313A0000A30A2000030A3000A161D
:100DBC008A11A3230A128A118312031321088316A2
:100DCC000313DA0083120313200883160313D900CC
:100DDC000130CE070318CF0A0030CF075808803AED
:100DEC0083120313EC00831603134F08803A83120B
:100DFC0003136C02031D062F831603134E085702B0
:100E0C000318092F0A2FCD2E8316031359088312AA
:100E1C000313A400831603135A0883120313A500AB
:100E2C000030A51BFF30A600A70001300A168A115E
:100E3C0044270A128A11831203132708B5002608C7
:100E4C00B4002508B3002408B2006908B90068088A
:100E5C00B8006708B7006608B6000A128A158E201B
:100E6C000A128A1183120313350883160313D30055
:100E7C0083120313340883160313D2008312031353
:100E8C00330883160313D10083120313320883161D
:100E9C000313D0005A0883120313A3008316031301
:100EAC00590883120313A200831603135308F3008B
:100EBC005208F2005108F1005008F0000A128A1191
:100ECC0020200A128A11710883120313A1007008E2
:100EDC00A0000A168A11A3230A128A118312031383
:100EEC002008A4002108A5000030A51BFF30A60097
:100EFC00A70001300A168A1144270A128A1183129C
:100F0C0003132708B5002608B4002508B3002408ED
:100F1C00B2006908B9006808B8006708B70066082D
:100F2C00B6000A168A1158230A128A118312031367
:100F3C003508E9003408E8003308E7003208E60019
:100F4C00831603135308F3005208F2005108F10002
:100F5C005008F0000A128A1120200A128A11700817
:100F6C00303E83120313EC00831603135408560708
:100F7C0083120313ED006D0884006C08831380004A
:100F8C00013083160313D4070318D50A0030D50794
:100F9C00FF30D7070318D80AFF30D8070130D90023
:100FAC000030DA0057085804031DDD2FDE2FBD2E4C
:100FBC000A3083120313EC008316031354085607EC
:100FCC0083120313ED006D0884006C0883138000FA
:100FDC00080083120313EE01EF018313A030840089
:100FEC00CC300A168A11FC220A128A1183010A12C9
:100FFC008A15032DFF1B0A2883137F1883170008FB
:10100C00840A0319FF0A080008308A000408840ABD
:10101C0082070034533431343A340034533432348C
:10102C003A340034533433343A34003456340034C4
:10103E00F20059288316031708148D2883160317F8
:10104E0088148D288316031708158D288316031709
:10105E0088158D288316031708168D2883160317F7
:10106E0088168D288316031708178D2883160317E5
:10107E0088178D288316031709148D2883160317D6
:10108E0089148D288316031709158D2883160317C7
:10109E0089158D288316031709168D2883160317B5
:1010AE0089168D287208F000F1017108003A0319B3
:1010BE0061288D287008003A03192128013A031976
:1010CE002528033A03192928013A03192D28073A2E
:1010DE0003193128013A03193528033A031939281F
:1010EE00013A03193D280F3A03194128013A031911
:1010FE004528033A03194928013A03194D28073A9E
:10110E0003195128013A031955288D280800831216
:10111E00031339088039BA003A08C3003908BA00F7
:10112E003A07BB003B08CA00B81F9E289F28A0287C
:10113E004A144A080319A428A528B5284A0A031DEB
:10114E00A928AA28B2280030B9000030B800003013
:10115E00B7000030B600B817B901BD280030B9008D
:10116E000030B8000030B7000030B60035088039C6
:10117E00BA003A08C3063508BA003A07BB003B0866
:10118E00CB00B41FCB28CC28CD284B144B08031909
:10119E00D128D228E2284B0A031DD628D728DF28CB
:1011AE000030B5000030B4000030B3000030B200A3
:1011BE00B417B501EA280030B5000030B400003095
:1011CE00B3000030B2003508340433043204031D7A
:1011DE00F128F2280B290030B9000030B800003099
:1011EE00B7000030B6008030B8047F30B904430831
:1011FE00BA003A08B9043908B5003808B4003708FF
:10120E00B3003608B2006A2A4A08031D0F291029B6
:10121E0019290030B5000030B4000030B3000030A2
:10122E00B2006A2A4A08BA00BB013B08BD004B084F
:10123E003A02BC00031CBD033C087F3EC4003D08BF
:10124E000318013E003EC5003908C2003808C1002F
:10125E003708C0003608BF000030B9000030B800B3
:10126E000030B7000030B6000030C9000030C800B2
:10127E000030C7000030C600CB018F294B08031980
:10128E0049294A296A290130BA000310BF0DC00D41
:10129E00C10DC20DBA0B4C290130BA000310B60DA8
:1012AE00B70DB80DB90DBA0B5529C91F5F296029A5
:1012BE00612936140130BA000310C60DC70DC80DD2
:1012CE00C90DBA0B632935084202031D782934086B
:1012DE004102031D782933084002031D7829320884
:1012EE003F02031C7B297C298B2949173208BF0238
:1012FE003308031C330FC0023408031C340FC10221
:10130E003508031C350FC2020130BA003A08CB076C
:10131E001A304B02031C9429952945294208410491
:10132E0040043F0403199C299D29BC294614BC295D
:10133E000130BA000310B60DB70DB80DB90DBA0BCA
:10134E00A129C91FAB29AC29AD2936140130BA0029
:10135E000310C60DC70DC80DC90DBA0BAF29FF304E
:10136E00C4070318C50AFF30C507B81FBF29C02917
:10137E009F29CB01C91FC429C529E129FF30460584
:10138E00BA00FF304705BB00FF304805BC007F3078
:10139E004905BD003D083C043B043A040319D82915
:1013AE00D929DC29CB01CB0AE129361CDF29E0291A
:1013BE00E129D9294B080319E529E629172A013015
:1013CE00B607003003180130B7070030031801309C
:1013DE00B807003003180130B907391CF729F8296E
:1013EE00172A3608BA003708BB003808BC0039087F
:1013FE00BD000130BE003D0DBD0CBC0CBB0CBA0CCB
:10140E00BE0B022A3D08B9003C08B8003B08B700E5
:10141E003A08B6000130C4070318C50A0030C507E4
:10142E004508803AFF0080307F02031D202AFF30DE
:10143E004402031C232A242A322AFF308312031368
:10144E00C4000030C5000030B9000030B8000030D4
:10145E00B7000030B600831203134508803AFF0030
:10146E0080307F02031D3D2A013044020318402ABA
:10147E00412A4E2A83120313C401C5010030B9005C
:10148E000030B8000030B7000030B600C301831240
:10149E0003134408BA003A08CA004A1C572A582AAD
:1014AE005A2AB8175E2A7F30BA003A08B8054A0899
:1014BE00BA0003103A0CBB003B08B9004308BA004F
:1014CE003A08B904022908007308803983120313FD
:1014DE00A0002008F8007308A0002007A100210832
:1014EE00FA00F21F7B2A7C2A7D2A7A147A080319C5
:1014FE00812A822A922A7A0A031D862A872A8F2A0D
:10150E000030F3000030F2000030F1000030F00047
:10151E00F217F3019A2A0030F3000030F200003087
:10152E00F1000030F00077088039A0002008F900A3
:10153E00790878060319A42AA52AA62A7817770807
:10154E00A0002007A1002108F900F61FAF2AB02A3B
:10155E00B12A791479080319B52AB62AC62A790A46
:10156E00031DBA2ABB2AC32A0030F7000030F6004A
:10157E000030F5000030F400F617F701CE2A0030E7
:10158E00F7000030F6000030F5000030F4007A0865
:10159E0079020318D32AD42A182B781FD72AD82ACF
:1015AE00DC2A8030A0002008F8067A08A000200867
:1015BE00FB007908A0002008FA007B08A000200894
:1015CE00F9007008A0002008FB007408A000200895
:1015DE00F0007B08A0002008F4007108A00020088D
:1015EE00FB007508A0002008F1007B08A000200871
:1015FE00F5007208A0002008FB007608A000200865
:10160E00F2007B08A0002008F6007308A000200856
:10161E00FB007708A0002008F3007B08A00020083C
:10162E00F700FB017908A000A1012108A3007A08A8
:10163E002002A200031CA3032308803AFF0080307F
:10164E007F02031D2C2B1A302202031C2F2B302B52
:10165E00712B7308720471047004031D372B392B20
:10166E0001303A2B003083120313A0002008FB0038
:10167E000030F3000030F2000030F1000030F000D6
:10168E007908A0002008FA00772B7B1C4F2B502BDB
:10169E005B2B7B0883120313A0000310200C013870
:1016AE00A1002108FB005D2B0310FB0C701C602BAE
:1016BE00612B622BFB17013083120313A000730DF5
:1016CE00F30CF20CF10CF00CA00B662B0130A00009
:1016DE002008FA0779087A02031C762B772B4C2BFD
:1016EE00781B7A2B7B2BCA2B7A08031D7F2B802B22
:1016FE00892B0030F3000030F2000030F100003092
:10170E00F000022D7408F007750803110318013E4E
:10171E000319922BF107760803110318013E0319E2
:10172E00992BF207770803110318013E0319A02B1A
:10173E00F307731CA32BA42B822C7B1CA72BA82B8B
:10174E00B32B7B0883120313A0000310200C013867
:10175E00A1002108FB00B52B0310FB0C701CB82B4D
:10176E00B92BBA2BFB17013083120313A000730D94
:10177E00F30CF20CF10CF00CA00BBE2B0130A00000
:10178E002008FA07822C7308803AFF007708803A07
:10179E007F02031DDC2B76087202031DDC2B7508FD
:1017AE007102031DDC2B740870020318DF2BE02B73
:1017BE003A2CFF3083120313A000FF30A100FF303C
:1017CE00A200FF30A3007408A4007508A5007608D7
:1017DE00A6007708A7007008A4027108031C710FF9
:1017EE00F92BFA2BA5027208031C720FFF2B002C8B
:1017FE00A6027308031C730F052C062CA7022408DF
:10180E00A00725080318250F0D2C0E2CA10726085E
:10181E000318260F132C142CA20727080318270AC7
:10182E00A3072308F3002208F2002108F100200884
:10183E00F0008030A0002008F806FB09FB0A7B08A8
:10184E00031D2A2C2B2C482C0130F00700300318D6
:10185E000130F107003003180130F2070030031891
:10186E000130F307482C7408F0027508031C750F3D
:10187E00F1027608031C760FF2027708031C770F2D
:10188E00F3027308720471047004031D4F2C502C64
:10189E007E2C7B08031D542C552C7E2C0030F3001F
:1018AE000030F2000030F1000030F000022D013067
:1018BE0083120313A0000310F00DF10DF20DF30DC2
:1018CE00A00B622CFB1F6C2C6D2C6E2C70147B1CD1
:1018DE00712C722C752C0314FB0D772C0310FB0D41
:1018EE007A0803197B2C7C2C7E2C0130FA02F21F15
:1018FE00812C822C5E2CF901FB1F862C872C952CBB
:10190E007B087F3903198C2C8D2C902CF901F90A48
:10191E00952C701C932C942C952C8D2C79080319D6
:10192E00992C9A2CD02C0130F0070030031801307E
:10193E00F107003003180130F207003003180130B0
:10194E00F307731CAB2CAC2CD02C70088312031332
:10195E00A0007108A1007208A2007308A300013054
:10196E00A400230DA30CA20CA10CA00CA40BB82C4C
:10197E002308F3002208F2002108F1002008F000ED
:10198E007A0A0319CB2CCC2CD02C0130A0002008C5
:10199E00FA077A0A0319D42CD52CDA2C7A08031DEF
:1019AE00D92CDA2CE82C0030F3000030F200003095
:1019BE00F1000030F0007A08031DE62CE72CE82C2D
:1019CE00F8017A1CEB2CEC2CEE2CF217F42C7F3059
:1019DE0083120313A0002008F2057A088312031362
:1019EE00A0000310200CA1002108F300F81F002D09
:1019FE00012D022DF31708008316031788018901A4
:101A0E00F001F101F20102300A168A1151240A1274
:101A1E008A150C300A128A151F200A128A150A30EE
:101A2E000A128A151F200A128A150C300A168A11FC
:101A3E0091260A128A15003083120313A300003078
:101A4E00A2002530A1008030A000A401A40A0A162D
:101A5E008A1180250A128A1583160313850107132E
:101A6E00871788018901FF308600831203138501D1
:101A7E0086018701880189010A168A110C240A122F
:101A8E008A150A168A1104230A128A15F401F40A19
:101A9E0001300A168A1134230A128A150130F30016
:101AAE008030F4000A168A11CA230A128A150830E9
:101ABE0083160313DB005B08F40001300A168A114B
:101ACE0034230A128A150530F3008030F4000A160A
:101ADE008A11CA230A128A150F3083160313DB00EC
:101AEE005B08F40001300A168A1134230A128A1593
:101AFE000930F3008030F4000A168A11CA230A1244
:101B0E008A15831203130C1F8D2D8E2DC32D831654
:101B1E0003132D08031D942D952DAC2D8312031345
:101B2E001E0883160313DB005B0883120313EF00FA
:101B3E000A300A168A1191260A128A150130831666
:101B4E000313DB005B08AD07C02D831203131E08C1
:101B5E0083160313DB005B0883120313EE000C30B5
:101B6E000A168A1191260A128A150130831603135A
:101B7E00AD02831203130C130A168A11F5220A12F0
:101B8E008A15003A0319CC2DCD2D422E0A168A1134
:101B9E0011230A128A1583160313DB005B08AC00AF
:101BAE002B302C06031DDC2DDD2DFD2D3F30F300DB
:101BBE008030F2000030F1000030F0002B08F7000A
:101BCE002A08F6002908F5002808F4000A128A15DA
:101BDE006B220A128A15730883160313AB00720860
:101BEE00AA007108A9007008A800422E2D302C06FC
:101BFE00031D022E032E422E3F3083120313B50017
:101C0E008030B4000030B3000030B20083160313EE
:101C1E002B0883120313B900831603132A088312A9
:101C2E000313B80083160313290883120313B70096
:101C3E0083160313280883120313B6000A168A119B
:101C4E0058230A128A1583120313350883160313B9
:101C5E00AB0083120313340883160313AA008312F6
:101C6E000313330883160313A900831203133208D8
:101C7E0083160313A800003083160313A700003049
:101C8E00A6000030A5000030A4000030A3000030F4
:101C9E00A2000030A1000030A000403083120313D8
:101CAE00CF00A030CE000030CD000030CC0043304D
:101CBE00B5007F30B4000030B3000030B2006F08C2
:101CCE0083160313DB00DC01DD01DE015E088312E7
:101CDE000313A700831603135D0883120313A600D4
:101CEE00831603135C0883120313A50083160313D4
:101CFE005B0883120313A40001300A168A114427CD
:101D0E000A128A15831203132708B9002608B80091
:101D1E002508B7002408B6000A128A158E200A126A
:101D2E008A15831203133508D3003408D200330802
:101D3E00D1003208D0000A128A119A200A128A158E
:101D4E00831203134F0883160313A7008312031382
:101D5E004E0883160313A600831203134D08831631
:101D6E000313A500831203134C0883160313A40058
:101D7E00270883120313E900831603132608831220
:101D8E000313E80083160313250883120313E700D9
:101D9E0083160313240883120313E6000230EA00AD
:101DAE000030EB00B8300A128A11FB230A128A1592
:101DBE00403083120313CF00A030CE000030CD0090
:101DCE000030CC004330B5007F30B4000030B3009B
:101DDE000030B2006E0883160313DB00DC01DD0158
:101DEE00DE015E0883120313A700831603135D083A
:101DFE0083120313A600831603135C0883120313C6
:101E0E00A500831603135B0883120313A40001308D
:101E1E000A168A1144270A128A15831203132708F9
:101E2E00B9002608B8002508B7002408B6000A1223
:101E3E008A158E200A128A15831203133508D300D1
:101E4E003408D2003308D1003208D0000A128A11A9
:101E5E009A200A128A15831203134F08831603134E
:101E6E00A300831203134E0883160313A2008312DA
:101E7E0003134D0883160313A100831203134C089A
:101E8E0083160313A000230883120313E90083169D
:101E9E000313220883120313E80083160313210889
:101EAE0083120313E7008316031320088312031310
:101EBE00E6000230EA000030EB00AE300A128A1162
:101ECE00FB230A128A15831603132B08831203139E
:101EDE00E900831603132A0883120313E8008316FE
:101EEE000313290883120313E7008316031328082C
:101EFE0083120313E6000130EA000030EB00C2301B
:101F0E000A128A11FB230A128A15F401F40A02300E
:101F1E000A168A1134230A128A15B830F3000030DB
:101F2E00F4000A168A11CA230A128A15053083167E
:101F3E000313DB005B08F40002300A168A11342307
:101F4E000A128A150D30F3008030F4000A168A1139
:101F5E00CA230A128A15073083160313DB005B08A7
:101F6E00F40002300A168A1134230A128A15AE3092
:101F7E00F3000030F4000A168A11CA230A128A15D9
:101F8E000B3083160313DB005B08F40002300A16D5
:101F9E008A1134230A128A150D30F3008030F400B2
:101FAE000A168A11CA230A128A150F3083160313D2
:101FBE00DB005B08F40002300A168A1134230A1281
:101FCE008A15C230F3000030F4000A168A11CA23B3
:101FDE000A128A151A3083160313DC00F730DB0061
:101FEE00DB0BF72FDC0BF72FFC2F4D2D0A128A116E
:021FFE000028B9
:1025DE00F0007008831203138500080083120313A2
:1025EE000C0EF000700C0139080064008001840AA2
:1025FE000406031900340406FD2A00300A128A115B
:10260E0006200A168A1101300A128A1106200A16AD
:10261E008A1108000A168A11F5220A168A11003A42
:10262E0003191A2B1B2B112B831203131A080800E4
:10263E00F20083120313081472080A168A11EF228D
:10264E000A168A118312031388140330F100F10B5A
:10265E002E2B8312031388100800F6007603031D39
:10266E00392B3A2B462B74087F3EF5007508F70080
:10267E0077080A128A1106200A168A11572B023081
:10268E007606031D4B2B4C2B572B7408BF3EF500C3
:10269E007508F70077080A128A1106200A168A11A1
:1026AE000800803083120313B5063908F30038088A
:1026BE00F2003708F1003608F0003508F70034084C
:1026CE00F6003308F5003208F4000A128A156B2260
:1026DE000A168A11730883120313B5007208B40028
:1026EE007108B3007008B2000800F800F401F5019B
:1026FE007008F200F3017208F6007308F700781CF8
:10270E00892B8A2B902B7608F4070318F50A770885
:10271E00F50701300310F60DF70DFF3E031D912B4B
:10272E000310F80C7808031D9D2B9E2B862B750825
:10273E00F1007408F0000800FB01FC018312031382
:10274E00201CAA2BAB2BB12B2208FB070318FC0A6B
:10275E002308FC0701300310A20DA30DFF3E031D3D
:10276E00B22B01300310A10CA00CFF3E031DB92BA0
:10277E0020082104031DC42BC52BA52B7C08A1000A
:10278E007B08A0000800F801F901EF2B7808730709
:10279E00F6007408F5000318F50AF81FD72BF50399
:1027AE007508F700770883120313FF00760884007C
:1027BE000A128A1500200A168A110A168A111F2378
:1027CE000A168A110130F8070318F90A0030F907C2
:1027DE0078087307F6007408F5000318F50AF81F59
:1027EE00F92BF5037508F700770883120313FF0022
:1027FE00760884000A128A1500200A168A11003AF9
:10280E00031D0A2C0B2CCD2B080000300A168A1142
:10281E00EF220A168A111A30F500F830F400F40B84
:10282E00162CF50B162C000030300A128A110620D9
:10283E000A168A110730F5007D30F400F40B252CB2
:10284E00F50B252C30300A128A1106200A168A1131
:10285E000F30F5004730F400F40B332CF50B332C0E
:10286E00382C30300A128A1106200A168A11383096
:10287E000A128A1106200A168A110C300A128A11BF
:10288E0006200A168A1106300A128A1106200A1626
:10289E008A110800F500831203131F14622C1F13F4
:1028AE009F13782C1F179F13782C1F139F17782CAC
:1028BE001F179F17782C7508F300F4017408003A5F
:1028CE0003196A2C782C7308013A0319562C033A13
:1028DE000319592C013A03195C2C073A03195F2C82
:1028EE00782C7003031D7C2C7D2C832C83160313F4
:1028FE000C17831203130C137208031D872C882CDC
:10290E008C2C831603139F139C2C831603139F1773
:10291E009C2C1F129F12B22C1F169F12B22C1F122C
:10292E009F16B22C1F169F16B22C7108F300F401DD
:10293E007408003A0319A42CB22C7308003A031938
:10294E00902C013A0319932C033A0319962C013A51
:10295E000319992CB22C08000030FC000030FB004B
:10296E000030FA000030F90073087204710470042C
:10297E000319C22CC32C102DFD01FD0AD32C0130DE
:10298E00F8000310F00DF10DF20DF30DF80BC82C3D
:10299E000130F8007808FD07F31FD62CD72CC62C73
:1029AE000130F8000310F90DFA0DFB0DFC0DF80BBC
:1029BE00D92C73087702031DEE2C72087602031DC4
:1029CE00EE2C71087502031DEE2C70087402031CA8
:1029DE00F12CF22C012D7008F4027108031C710FFA
:1029EE00F5027208031C720FF6027308031C730FB4
:1029FE00F702791401300310F30CF20CF10CF00C09
:102A0E00FF3E031D022D0130FD02031D0F2D102D63
:102A1E00D72C7C08F3007B08F2007A08F1007908C5
:102A2E00F0000800F601F11F1D2D1E2D252DF009B9
:102A3E00F109F00A0319F10AF601F60AF31F282D1F
:102A4E00292D322DF209F309F20A0319F30A013086
:102A5E00F4007408F606F701F80170087104031902
:102A6E00392D3A2D712DF501F50A482D013003103F
:102A7E00F00DF10DFF3E031D3E2D0130F4007408E4
:102A8E00F507F11F4B2D4C2D3D2D01300310F70D89
:102A9E00F80DFF3E031D4D2D71087302031D592DB8
:102AAE0070087202031C5C2D5D2D642D7008F202FD
:102ABE007108031CF303F302771401300310F10CB9
:102ACE00F00CFF3E031D652D0130F502031D702D28
:102ADE00712D4C2D76080319752D762D7B2DF7094A
:102AEE00F809F70A0319F80A7808F1007708F000D8
:102AFE000800831203132408031D862D872DB42D81
:102B0E002008A5002108A6002208A7002308A80077
:102B1E0006300310A50DA60DA70DA80DFF3E031D33
:102B2E00902D2808F3002708F2002608F10025084A
:102B3E00F0000030F7003D30F6000930F5000030AF
:102B4E00F4000A168A11B3240A168A117008FF3E81
:102B5E008316031399001811E02D2008A5002108F3
:102B6E00A6002208A7002308A80004300310A50D14
:102B7E00A60DA70DA80DFF3E031DBD2D2808F300C1
:102B8E002708F2002608F1002508F0000030F700B3
:102B9E003D30F6000930F5000030F4000A168A11B7
:102BAE00B3240A168A117008FF3E83160313990088
:102BBE001815181398161812831203139817181352
:102BCE001816181198108316031387170713080089
:102BDE0000307005F80000307105F9008030720584
:102BEE00FA007F307305FB007B087A0479047804C1
:102BFE00031D022E032E0B2E0030F3000030F200C8
:102C0E000030F1000030F00000307405F8000030A4
:102C1E007505F90080307605FA007F307705FB00E8
:102C2E007B087A0479047804031D1E2E1F2E272E8E
:102C3E000030F7000030F6000030F5000030F400F0
:102C4E00F31F2A2E2B2E4F2E0030F8000030F900E5
:102C5E000030FA008030FB007008F8027108031C87
:102C6E00710F3A2E3B2EF9027208031C720F402E82
:102C7E00412EFA027308031C730F462E472EFB02D9
:102C8E007B08F3007A08F2007908F1007808F0006A
:102C9E00F71F522E532E772E0030F8000030F90019
:102CAE000030FA008030FB007408F8027508031C2F
:102CBE00750F622E632EF9027608031C760F682EAE
:102CCE00692EFA027708031C770F6E2E6F2EFB0209
:102CDE007B08F7007A08F6007908F5007808F4000A
:102CEE008030F3068030F70677087302031D892EB5
:102CFE0076087202031D892E75087102031D892E36
:102D0E007408700203188C2E8D2E8F2E0310902EA9
:102D1E0003140800F200032F831203131F119F11D7
:102D2E001F129F123D2F831203131F159F111F1287
:102D3E009F123D2F831203131F119F151F129F12F7
:102D4E003D2F831203131F159F151F129F123D2F28
:102D5E00831203131F119F111F169F123D2F8312F3
:102D6E0003131F159F111F169F123D2F831203135E
:102D7E001F119F151F169F123D2F831203131F1530
:102D8E009F151F169F123D2F831203131F119F11A4
:102D9E001F129F163D2F831203131F159F111F1213
:102DAE009F163D2F831203131F119F151F129F167F
:102DBE003D2F831203131F159F151F129F163D2FB4
:102DCE00831203131F119F111F169F163D2F83127F
:102DDE0003131F159F111F169F163D2F83120313EA
:102DEE001F119F151F169F163D2F831203131F15BC
:102DFE009F151F169F163D2F7208F000F1017108E6
:102E0E00003A03190B2F3D2F7008003A0319932E29
:102E1E00013A03199A2E033A0319A12E013A031906
:102E2E00A82E073A0319AF2E013A0319B62E033A0C
:102E3E000319BD2E013A0319C42E0F3A0319CB2ED6
:102E4E00013A0319D22E033A0319D92E013A031966
:102E5E00E02E073A0319E72E013A0319EE2E033A34
:102E6E000319F52E013A0319FC2E3D2F3E2F3F2F4D
:102E7E000000831203139F14080083120313AC0087
:102E8E002C0803194B2F4C2F602FA71F4F2F502F9D
:102E9E00602F2409AE002509AF002609B0002709CE
:102EAE00B100AE0A0319AF0A0319B00A0319B10A29
:102EBE00682F2708B1002608B0002508AF002408A7
:102ECE00AE002708260425042404031D6F2F702F3F
:102EDE00792F0030A7000030A6000030A50000308A
:102EEE00A400FF2F9630A8002808AD008B2F0130CC
:102EFE00A8002808AD0701300310B10CB00CAF0CC0
:102F0E00AE0CFF3E031D832FFE303105031D902FA7
:102F1E00912F7E2FAD2F0130A8002808AD0701306C
:102F2E00AE07003003180130AF0700300318013030
:102F3E00B007003003180130B10701300310B10C97
:102F4E00B00CAF0CAE0CFF3E031DA52FFF303105AC
:102F5E00031DB22FB32F922FBF2F0130AD020130C0
:102F6E00A8000310AE0DAF0DB00DB10DA80BB82F0C
:102F7E00B01BC22FC32FC92F02302D020318C82F2A
:102F8E00C92FB42F2D18CC2FCD2FD52FFF30AE0536
:102F9E00FF30AF057F30B005FF30B1050310AD0C2B
:102FAE002D08A800A901AA01AB0118300310A80D25
:102FBE00A90DAA0DAB0DFF3E031DDD2F2808AE0493
:102FCE002908AF042A08B0042B08B1042C080319F1
:102FDE00F12FF22FF72FA71FF52FF62FF72FB1177F
:102FEE003108A7003008A6002F08A5002E08A4005F
:022FFE000800C9
:04400E00D420FF3F7C
:00000001FF
