:020000040000FA
:060000000A128A11E72F2D
:10000C0003340A168A11A3210A128A11003A031921
:10001C00102811280728831203131A0808008316C6
:10002C00031788018901F001F101F20102300A166F
:10003C008A1168230A128A110C300A168A110625B5
:10004C000A128A110A300A168A1106250A128A1116
:10005C000C300A168A1191260A128A11003083126A
:10006C000313A3000030A2002530A1008030A000B3
:10007C00A401A40A0A168A1197240A128A1183165B
:10008C00031385010713871788018901FF30860048
:10009C0083120313850186018701880189010A16E1
:1000AC008A11D2220A128A110A168A11BE210A1248
:1000BC008A11F401F40A01300A168A11FA210A1283
:1000CC008A110130F3008030F4000A168A11902254
:1000DC000A128A11083083160313DB005B08F40044
:1000EC0001300A168A11FA210A128A110530F3001E
:1000FC008030F4000A168A1190220A128A110F30ED
:10010C0083160313DB005B08F40001300A168A1116
:10011C00FA210A128A110930F3008030F4000A1611
:10012C008A1190220A128A11831203130C1F9F2822
:10013C00A028D528831603132D08031DA628A7284D
:10014C00BE28831203131E0883160313DB005B08FF
:10015C0083120313EF000A300A168A1191260A1231
:10016C008A11013083160313DB005B08AD07D2281C
:10017C00831203131E0883160313DB005B08831220
:10018C000313EE000C300A168A1191260A128A11FA
:10019C00013083160313AD02831203130C130A16DA
:1001AC008A11A3210A128A11003A0319DE28DF28CA
:1001BC0054290A128A1107200A128A118316031372
:1001CC00DB005B08AC002B302C06031DEE28EF285F
:1001DC000F293F30F3008030F2000030F100003086
:1001EC00F0002B08F7002A08F6002908F50028086B
:1001FC00F4000A128A1507220A128A117308831650
:10020C000313AB007208AA007108A9007008A800BB
:10021C0054292D302C06031D1429152954293F303F
:10022C0083120313B5008030B4000030B3000030EB
:10023C00B200831603132B0883120313B900831621
:10024C0003132A0883120313B80083160313290817
:10025C0083120313B70083160313280883120313A6
:10026C00B6000A168A111E220A128A11831203136F
:10027C00350883160313AB0083120313340883165B
:10028C000313AA0083120313330883160313A90064
:10029C0083120313320883160313A800003083164D
:1002AC000313A7000030A6000030A5000030A40006
:1002BC000030A3000030A2000030A1000030A000EC
:1002CC00403083120313CF00A030CE000030CD009D
:1002DC000030CC004330B5007F30B4000030B300A8
:1002EC000030B2006F0883160313DB00DC01DD0164
:1002FC00DE015E0883120313A700831603135D0847
:10030C0083120313A600831603135C0883120313D2
:10031C00A500831603135B0883120313A40001309A
:10032C000A168A1144270A128A118312031327080A
:10033C00B9002608B8002508B7002408B6000A1230
:10034C008A152A200A128A11831203133508D30046
:10035C003408D2003308D1003208D0000A128A15B2
:10036C009F240A128A11831203134F088316031356
:10037C00A700831203134E0883160313A6008312DF
:10038C0003134D0883160313A500831203134C08A3
:10039C0083160313A400270883120313E9008316A2
:1003AC000313260883120313E8008316031325088E
:1003BC0083120313E7008316031324088312031319
:1003CC00E6000230EA000030EB00B8300A128A1165
:1003DC00F3230A128A111930F1008030F200033035
:1003EC0083160313DB005B08F3000A168A1117232C
:1003FC000A128A110D30F1008030F200063083169B
:10040C000313DB005B08F3000A168A1117230A1288
:10041C008A110330F1008030F2000330831603138D
:10042C00DB005B08F3000A168A1117230A128A11E3
:10043C001330F1008030F200033083160313DB001D
:10044C005B08F3000A168A1117230A128A11B830B6
:10045C00F1000030F200063083160313DB005B085A
:10046C00F3000A168A1117230A128A111730F100A9
:10047C008030F200033083160313DB005B08F300BB
:10048C000A168A1117230A128A111530F1008030CE
:10049C00F200033083160313DB005B08F3000A162B
:1004AC008A1117230A128A111330F1008030F200DE
:1004BC00033083160313DB005B08F3000A168A1162
:1004CC0017230A128A11403083120313CF00A03075
:1004DC00CE000030CD000030CC004330B5007F3072
:1004EC00B4000030B3000030B2006E088316031362
:1004FC00DB00DC01DD01DE015E0883120313A700C3
:10050C00831603135D0883120313A60083160313CB
:10051C005C0883120313A500831603135B08831274
:10052C000313A40001300A168A1144270A128A11F7
:10053C00831203132708B9002608B8002508B70052
:10054C002408B6000A128A152A200A128A1183126C
:10055C0003133508D3003408D2003308D100320815
:10056C00D0000A128A159F240A128A1183120313CF
:10057C004F0883160313A300831203134E0883162C
:10058C000313A200831203134D0883160313A10057
:10059C00831203134C0883160313A0002308831241
:1005AC000313E90083160313220883120313E800D4
:1005BC0083160313210883120313E7008316031316
:1005CC00200883120313E6000230EA000030EB002F
:1005DC00AE300A128A11F3230A128A111030F1007C
:1005EC008030F200063083160313DB005B08F30047
:1005FC000A168A1117230A128A110330F10080306F
:10060C00F200033083160313DB005B08F3000A16B9
:10061C008A1117230A128A111330F1008030F2006C
:10062C00033083160313DB005B08F3000A168A11F0
:10063C0017230A128A11AE30F1000030F200063096
:10064C0083160313DB005B08F3000A168A111723C9
:10065C000A128A111730F1008030F2000330831631
:10066C000313DB005B08F3000A168A1117230A1226
:10067C008A111930F1008030F20003308316031315
:10068C00DB005B08F3000A168A1117230A128A1181
:10069C001330F1008030F200033083160313DB00BB
:1006AC005B08F3000A168A1117230A128A118316A3
:1006BC0003132B0883120313E900831603132A0870
:1006CC0083120313E8008316031329088312031300
:1006DC00E70083160313280883120313E600013086
:1006EC00EA000030EB00C2300A128A11F3230A121E
:1006FC008A11F401F40A02300A168A11FA210A123C
:10070C008A11B830F3000030F4000A168A119022D6
:10071C000A128A11053083160313DB005B08F40000
:10072C0002300A168A11FA210A128A111730F300C4
:10073C008030F4000A168A1190220A128A110730AE
:10074C0083160313DB005B08F40002300A168A11CF
:10075C00FA210A128A11AE30F3000030F4000A16A6
:10076C008A1190220A128A110B3083160313DB00B4
:10077C005B08F40002300A168A11FA210A128A1157
:10078C001730F3008030F4000A168A1190220A12F6
:10079C008A110F3083160313DB005B08F400023060
:1007AC000A168A11FA210A128A11C230F30000309B
:1007BC00F4000A168A1190220A128A111A30831632
:1007CC000313DC00F730DB00DB0BEA2BDC0BEA2B32
:1007DC00EF2B5F280A128A11002883160313D60008
:1007EC00831203136908F3006808F2006708F1002C
:1007FC006608F0000A168A1175250A128A1171080A
:10080C0083160313CD007008CC00D701D801D40196
:10081C00D5010130D9000030DA00831203136908C6
:10082C00F3006808F2006708F1006608F000003079
:10083C00F7000030F6000030F5000030F4000A1626
:10084C008A11EF250A128A1103182D2C2E2C7C2CC0
:10085C00BF3083120313CF008030CE000030CD00A8
:10086C000030CC006908D3006808D2006708D100BA
:10087C006608D0000A128A159F240A128A11831264
:10088C0003134F08E9004E08E8004D08E7004C0838
:10089C00E6002D30EC0083160313560884008312F7
:1008AC0003136C0883138000013083160313D407E1
:1008BC000318D50A0030D5077C2C0A30F000003024
:1008CC00F1004D08F3004C08F2000A168A1130248E
:1008DC000A128A11710883160313CD007008CC001C
:1008EC000130D7070318D80A0030D8078316031332
:1008FC004C084D04031D832C842C632CA02D570312
:10090C005804031D8A2C8B2C902C0130D9000030FC
:10091C00DA00D22C0230CE000030CF00BC2C831673
:10092C0003135A0883120313A100831603135908E7
:10093C0083120313A0000A30A2000030A3000A1691
:10094C008A1169220A128A11831203132108831651
:10095C000313DA0083120313200883160313D90040
:10096C000130CE070318CF0A0030CF075808803A61
:10097C0083120313EC00831603134F08803A83127F
:10098C0003136C02031DCE2C831603134E0857025F
:10099C000318D12CD22C952C8316031359088312CF
:1009AC000313A400831603135A0883120313A50020
:1009BC000030A51BFF30A600A70001300A168A11D3
:1009CC0044270A128A11831203132708B50026083C
:1009DC00B4002508B3002408B2006908B9006808FF
:1009EC00B8006708B7006608B6000A128A152A20F4
:1009FC000A128A1183120313350883160313D300CA
:100A0C0083120313340883160313D20083120313C7
:100A1C00330883160313D100831203133208831691
:100A2C000313D0005A0883120313A3008316031375
:100A3C00590883120313A200831603135308F300FF
:100A4C005208F2005108F1005008F0000A168A1101
:100A5C0075250A128A11710883120313A1007008FC
:100A6C00A0000A168A1169220A128A118312031332
:100A7C002008A4002108A5000030A51BFF30A6000B
:100A8C00A70001300A168A1144270A128A11831210
:100A9C0003132708B5002608B4002508B300240862
:100AAC00B2006908B9006808B8006708B7006608A2
:100ABC00B6000A168A111E220A128A118312031317
:100ACC003508E9003408E8003308E7003208E6008E
:100ADC00831603135308F3005208F2005108F10077
:100AEC005008F0000A168A1175250A128A1170082E
:100AFC00303E83120313EC0083160313540856077D
:100B0C0083120313ED006D0884006C0883138000BE
:100B1C00013083160313D4070318D50A0030D50708
:100B2C00FF30D7070318D80AFF30D8070130D90097
:100B3C000030DA0057085804031DA52DA62D852C6E
:100B4C002E3083120313EC0083160313540856073C
:100B5C0083120313ED006D0884006C08831380006E
:100B6C00013083160313D4070318D50A0030D507B8
:100B7C000130CE000030CF00EA2D831603135A0843
:100B8C0083120313A1008316031359088312031352
:100B9C00A0000A30A2000030A3000A168A116922B4
:100BAC000A128A1183120313210883160313DA0025
:100BBC0083120313200883160313D9000130CE07C8
:100BCC000318CF0A0030CF07831203136B08803A47
:100BDC00EC00831603134F08803A831203136C0244
:100BEC00031DFE2D831603134E08831203136A0292
:100BFC000318012E022EC32D8316031359088312DA
:100C0C000313A400831603135A0883120313A500BD
:100C1C000030A51BFF30A600A70001300A168A1170
:100C2C0044270A128A11831203132708CF002608BF
:100C3C00CE002508CD002408CC006908F300680814
:100C4C00F2006708F1006608F0000A168A11752593
:100C5C000A128A11700883120313A4007108A500EC
:100C6C000030A51BFF30A600A70001300A168A1120
:100C7C0044270A128A11831203132708B500260889
:100C8C00B4002508B3002408B2006908B90068084C
:100C9C00B8006708B7006608B6000A168A111E224B
:100CAC000A128A11831203133508D3003408D200B8
:100CBC003308D1003208D0000A128A159F240A1278
:100CCC008A11831203134F0883160313D300831264
:100CDC0003134E0883160313D200831203134D081B
:100CEC0083160313D100831203134C0883160313CA
:100CFC00D000530883120313E90083160313520820
:100D0C0083120313E8008316031351088312031391
:100D1C00E70083160313500883120313E6006908D7
:100D2C00F3006808F2006708F1006608F0000A1684
:100D3C008A1175250A128A11013083160313D90002
:100D4C000030DA00831203136B0883160313D800E8
:100D5C00831203136A0883160313D700D02F57038B
:100D6C005804031DBA2EBB2EC02E0130D900003002
:100D7C00DA00022F0230CE000030CF00EC2E8316AA
:100D8C0003135A0883120313A10083160313590883
:100D9C0083120313A0000A30A2000030A3000A162D
:100DAC008A1169220A128A118312031321088316ED
:100DBC000313DA0083120313200883160313D900DC
:100DCC000130CE070318CF0A0030CF075808803AFD
:100DDC0083120313EC00831603134F08803A83121B
:100DEC0003136C02031DFE2E831603134E085702C9
:100DFC000318012F022FC52E8316031359088312D3
:100E0C000313A400831603135A0883120313A500BB
:100E1C000030A51BFF30A600A70001300A168A116E
:100E2C0044270A128A11831203132708B5002608D7
:100E3C00B4002508B3002408B2006908B90068089A
:100E4C00B8006708B7006608B6000A128A152A208F
:100E5C000A128A1183120313350883160313D30065
:100E6C0083120313340883160313D2008312031363
:100E7C00330883160313D10083120313320883162D
:100E8C000313D0005A0883120313A3008316031311
:100E9C00590883120313A200831603135308F3009B
:100EAC005208F2005108F1005008F0000A168A119D
:100EBC0075250A128A11710883120313A100700898
:100ECC00A0000A168A1169220A128A1183120313CE
:100EDC002008A4002108A5000030A51BFF30A600A7
:100EEC00A70001300A168A1144270A128A118312AC
:100EFC0003132708B5002608B4002508B3002408FE
:100F0C00B2006908B9006808B8006708B70066083D
:100F1C00B6000A168A111E220A128A1183120313B2
:100F2C003508E9003408E8003308E7003208E60029
:100F3C00831603135308F3005208F2005108F10012
:100F4C005008F0000A168A1175250A128A117008C9
:100F5C00303E83120313EC00831603135408560718
:100F6C0083120313ED006D0884006C08831380005A
:100F7C00013083160313D4070318D50A0030D507A4
:100F8C00FF30D7070318D80AFF30D8070130D90033
:100F9C000030DA0057085804031DD52FD62FB52E74
:100FAC000A3083120313EC008316031354085607FC
:100FBC0083120313ED006D0884006C08831380000A
:100FCC000800831603130A128A1106200A128A11CA
:100FDC00DF008313A0308400CC300A168A11AA21BA
:100FEC000A128A1183120313EE01EF0183010A1214
:100FFC008A111528FF1B0A2883137F1883170008F2
:10100C00840A0319FF0A080008308A000408840ABD
:10101C0082070034533431343A340034533432348C
:10102C003A340034533433343A3400345334313496
:10103C000034533432340034203400342C34003433
:10104C00563400347C34003483120313390880394D
:10105C00BA003A08C3003908BA003A07BB003B088B
:10106C00CA00B81F3A283B283C284A144A080319DE
:10107C004028412851284A0A031D452846284E2855
:10108C000030B9000030B8000030B7000030B600B6
:10109C00B817B90159280030B9000030B800003039
:1010AC00B7000030B60035088039BA003A08C306DC
:1010BC003508BA003A07BB003B08CB00B41F6728C1
:1010CC00682869284B144B0803196D286E287E2854
:1010DC004B0A031D722873287B280030B5000030A2
:1010EC00B4000030B3000030B200B417B50186284C
:1010FC000030B5000030B4000030B3000030B20056
:10110C003508340433043204031D8D288E28A72897
:10111C000030B9000030B8000030B7000030B60025
:10112C008030B8047F30B9044308BA003A08B904D7
:10113C003908B5003808B4003708B3003608B200D7
:10114C00062A4A08031DAB28AC28B5280030B50088
:10115C000030B4000030B3000030B200062A4A0858
:10116C00BA00BB013B08BD004B083A02BC00031C93
:10117C00BD033C087F3EC4003D080318013E003E01
:10118C00C5003908C2003808C1003708C00036084D
:10119C00BF000030B9000030B8000030B70000309C
:1011AC00B6000030C9000030C8000030C700003065
:1011BC00C600CB012B294B080319E528E628062984
:1011CC000130BA000310BF0DC00DC10DC20DBA0B1A
:1011DC00E8280130BA000310B60DB70DB80DB90DE3
:1011EC00BA0BF128C91FFB28FC28FD283614013046
:1011FC00BA000310C60DC70DC80DC90DBA0BFF28D8
:10120C0035084202031D142934084102031D142918
:10121C0033084002031D142932083F02031C17290E
:10122C001829272949173208BF023308031C330F2A
:10123C00C0023408031C340FC1023508031C350FDF
:10124C00C2020130BA003A08CB071A304B02031C19
:10125C0030293129E1284208410440043F04031994
:10126C00382939295829461458290130BA00031055
:10127C00B60DB70DB80DB90DBA0B3D29C91F4729CD
:10128C004829492936140130BA000310C60DC70D80
:10129C00C80DC90DBA0B4B29FF30C4070318C50A7A
:1012AC00FF30C507B81F5B295C293B29CB01C91F3F
:1012BC00602961297D29FF304605BA00FF304705BA
:1012CC00BB00FF304805BC007F304905BD003D0820
:1012DC003C043B043A040319742975297829CB0181
:1012EC00CB0A7D29361C7B297C297D2975294B0845
:1012FC00031981298229B3290130B607003003185C
:10130C000130B707003003180130B807003003185C
:10131C000130B907391C93299429B3293608BA002E
:10132C003708BB003808BC003908BD000130BE00CE
:10133C003D0DBD0CBC0CBB0CBA0CBE0B9E293D0864
:10134C00B9003C08B8003B08B7003A08B6000130B9
:10135C00C4070318C50A0030C5074508803AFF00CA
:10136C0080307F02031DBC29FF304402031CBF29BF
:10137C00C029CE29FF3083120313C4000030C500EE
:10138C000030B9000030B8000030B7000030B600B3
:10139C00831203134508803AFF0080307F02031D3F
:1013AC00D929013044020318DC29DD29EA298312EA
:1013BC000313C401C5010030B9000030B80000307F
:1013CC00B7000030B600C301831203134408BA00FF
:1013DC003A08CA004A1CF329F429F629B817FA2945
:1013EC007F30BA003A08B8054A08BA0003103A0C24
:1013FC00BB003B08B9004308BA003A08B9049E2860
:10140C0008007308803983120313A0002008F80029
:10141C007308A0002007A1002108FA00F21F172A68
:10142C00182A192A7A147A0803191D2A1E2A2E2A18
:10143C007A0A031D222A232A2B2A0030F3000030BB
:10144C00F2000030F1000030F000F217F301362A00
:10145C000030F3000030F2000030F1000030F000FA
:10146C0077088039A0002008F9007908780603195C
:10147C00402A412A422A78177708A0002007A100A9
:10148C002108F900F61F4B2A4C2A4D2A79147908A9
:10149C000319512A522A622A790A031D562A572AFD
:1014AC005F2A0030F7000030F6000030F500003005
:1014BC00F400F617F7016A2A0030F7000030F60046
:1014CC000030F5000030F4007A08790203186F2A16
:1014DC00702AB42A781F732A742A782A8030A000C4
:1014EC002008F8067A08A0002008FB007908A00064
:1014FC002008FA007B08A0002008F9007008A00062
:10150C002008FB007408A0002008F0007B08A00055
:10151C002008F4007108A0002008FB007508A0004A
:10152C002008F1007B08A0002008F5007208A0003C
:10153C002008FB007608A0002008F2007B08A00021
:10154C002008F6007308A0002008FB007708A00014
:10155C002008F3007B08A0002008F700FB017908A5
:10156C00A000A1012108A3007A082002A200031CFC
:10157C00A3032308803AFF0080307F02031DC82A92
:10158C001A302202031CCB2ACC2A0D2B73087204AE
:10159C0071047004031DD32AD52A0130D62A0030D9
:1015AC0083120313A0002008FB000030F30000306E
:1015BC00F2000030F1000030F0007908A0002008A3
:1015CC00FA00132B7B1CEB2AEC2AF72A7B088312DC
:1015DC000313A0000310200C0138A1002108FB000C
:1015EC00F92A0310FB0C701CFC2AFD2AFE2AFB179F
:1015FC00013083120313A000730DF30CF20CF10CE9
:10160C00F00CA00B022B0130A0002008FA0779087F
:10161C007A02031C122B132BE82A781B162B172B80
:10162C00662B7A08031D1B2B1C2B252B0030F3007B
:10163C000030F2000030F1000030F0009E2C7408F5
:10164C00F007750803110318013E03192E2BF1073F
:10165C00760803110318013E0319352BF20777089E
:10166C0003110318013E03193C2BF307731C3F2B8A
:10167C00402B1E2C7B1C432B442B4F2B7B088312A3
:10168C000313A0000310200C0138A1002108FB005B
:10169C00512B0310FB0C701C542B552B562BFB178A
:1016AC00013083120313A000730DF30CF20CF10C38
:1016BC00F00CA00B5A2B0130A0002008FA071E2CAE
:1016CC007308803AFF007708803A7F02031D782B5D
:1016DC0076087202031D782B75087102031D782B96
:1016EC007408700203187B2B7C2BD62BFF308312D3
:1016FC000313A000FF30A100FF30A200FF30A300B5
:10170C007408A4007508A5007608A6007708A70041
:10171C007008A4027108031C710F952B962BA5025F
:10172C007208031C720F9B2B9C2BA6027308031CC4
:10173C00730FA12BA22BA7022408A00725080318BE
:10174C00250FA92BAA2BA10726080318260FAF2BB0
:10175C00B02BA20727080318270AA3072308F300B6
:10176C002208F2002108F1002008F0008030A000CF
:10177C002008F806FB09FB0A7B08031DC62BC72BA8
:10178C00E42B0130F007003003180130F107003072
:10179C0003180130F207003003180130F307E42B73
:1017AC007408F0027508031C750FF1027608031C0F
:1017BC00760FF2027708031C770FF302730872049A
:1017CC0071047004031DEB2BEC2B1A2C7B08031DEE
:1017DC00F02BF12B1A2C0030F3000030F20000300B
:1017EC00F1000030F0009E2C013083120313A00096
:1017FC000310F00DF10DF20DF30DA00BFE2BFB1FE2
:10180C00082C092C0A2C70147B1C0D2C0E2C112C62
:10181C000314FB0D132C0310FB0D7A080319172C62
:10182C00182C1A2C0130FA02F21F1D2C1E2CFA2B2C
:10183C00F901FB1F222C232C312C7B087F39031937
:10184C00282C292C2C2CF901F90A312C701C2F2C4A
:10185C00302C312C292C79080319352C362C6C2C76
:10186C000130F007003003180130F1070030031885
:10187C000130F207003003180130F307731C472CBA
:10188C00482C6C2C700883120313A0007108A10063
:10189C007208A2007308A3000130A400230DA30C4E
:1018AC00A20CA10CA00CA40B542C2308F3002208AE
:1018BC00F2002108F1002008F0007A0A0319672CC5
:1018CC00682C6C2C0130A0002008FA077A0A031946
:1018DC00702C712C762C7A08031D752C762C842C8C
:1018EC000030F3000030F2000030F1000030F00066
:1018FC007A08031D822C832C842CF8017A1C872CEB
:10190C00882C8A2CF217902C7F3083120313A000A2
:10191C002008F2057A0883120313A0000310200C90
:10192C00A1002108F300F81F9C2C9D2C9E2CF31772
:10193C000800831203134F088039D4005408D900CF
:10194C004F08D4005407D5005508DF00CE1FAF2C2C
:10195C00B02CB12C5F145F080319B52CB62CC52C18
:10196C005F0A031DBA2CBB2CC32C0030CF000030F7
:10197C00CE000030CD000030CC00CE17CD2C003086
:10198C00CF000030CE000030CD000030CC0053082A
:10199C008039D4005408D9065308D4005407D50014
:1019AC005508DE00D21FDB2CDC2CDD2C5E145E080F
:1019BC000319E12CE22CF12C5E0A031DE62CE72C1A
:1019CC00EF2C0030D3000030D2000030D1000030BA
:1019DC00D000D217F92C0030D3000030D2000030E8
:1019EC00D1000030D0005E080319FD2CFE2C032D15
:1019FC005F08031D022D032D0C2D0030CF0000308D
:101A0C00CE000030CD000030CC00FF2F4C08D400AD
:101A1C005408F00052080A168A1142220A128A153A
:101A2C00710883120313E5007008E4006408D40005
:101A3C00D501D601D7015708DD005608DC00550842
:101A4C00DB005408DA006508D400D501D601D701B3
:101A5C005708E3005608E2005508E1005408E0007E
:101A6C004D08D4005408F00051080A168A1142227D
:101A7C000A128A15710883120313E5007008E4003A
:101A8C006408D400D501D601D7015408DA075508EB
:101A9C0003110318013E0319542DDB0756080311DB
:101AAC000318013E03195B2DDC07570803110318BB
:101ABC00013E0319622DDD076508D400D501D6015E
:101ACC00D7015408E007550803110318013E031908
:101ADC00702DE107560803110318013E0319772DE9
:101AEC00E207570803110318013E03197E2DE30783
:101AFC004E08D4005408F00050080A168A114222ED
:101B0C000A128A15710883120313E5007008E400A9
:101B1C006408D400D501D601D7015408DA0755085A
:101B2C0003110318013E03199C2DDB075608031102
:101B3C000318013E0319A32DDC07570803110318E2
:101B4C00013E0319AA2DDD076508D400D501D60185
:101B5C00D7015408E007550803110318013E031977
:101B6C00B82DE107560803110318013E0319BF2DC8
:101B7C00E207570803110318013E0319C62DE307AA
:101B8C000830D4000310DA0DDB0DDC0DDD0DD40BA9
:101B9C00C82D4D08D4005408F00050080A168A11BC
:101BAC0042220A128A15710883120313E500700889
:101BBC00E4006408D4006508D500D601D7015408A8
:101BCC00DA07550803110318013E0319EE2DDB0744
:101BDC00560803110318013E0319F52DDC075708AD
:101BEC0003110318013E0319FC2DDD074C08D4002A
:101BFC005408F00051080A168A1142220A128A155A
:101C0C00710883120313E5007008E4006408D40023
:101C1C006508D500D601D7015408DA075508031119
:101C2C000318013E03191B2EDB075608031103187A
:101C3C00013E0319222EDC07570803110318013E3D
:101C4C000319292EDD070830D4000310DA0DDB0D43
:101C5C00DC0DDD0DD40B2B2E4C08D4005408F000F9
:101C6C0050080A168A1142220A128A157108831228
:101C7C000313E5007008E4006408D4006508D5007F
:101C8C00D601D7015408DA07550803110318013E91
:101C9C000319512EDB07560803110318013E0319D3
:101CAC00582EDC07570803110318013E03195F2E49
:101CBC00DD074D08D4005408F00052080A168A11AA
:101CCC0042220A128A15710883120313E500700868
:101CDC00E4006408D4006508D500D601D701540887
:101CEC00E007550803110318013E03197E2EE10786
:101CFC00560803110318013E0319852EE2075708F5
:101D0C0003110318013E03198C2EE3074E08D4006F
:101D1C005408F00051080A168A1142220A128A1538
:101D2C00710883120313E5007008E4006408D40002
:101D3C006508D500D601D7015408E00755080311F2
:101D4C000318013E0319AB2EE107560803110318C3
:101D5C00013E0319B22EE207570803110318013E86
:101D6C000319B92EE3074E08D4005408F0005208AA
:101D7C000A168A1142220A128A1571088312031359
:101D8C00E5007008E4006408D4006508D500D601AD
:101D9C00D70108300310D40DD50DD60DD70DFF3E4D
:101DAC00031DD02E5408E007550803110318013EFB
:101DBC000319E12EE107560803110318013E03191C
:101DCC00E82EE207570803110318013E0319EF2E02
:101DDC00E3075A08D4005B08D5005C08D6005D0800
:101DEC00D70018300310D70CD60CD50CD40CFF3EF2
:101DFC00031DF82E5408E007550803110318013E83
:101E0C000319092FE107560803110318013E0319A2
:101E1C00102FE207570803110318013E0319172F5F
:101E2C00E3070830D4000310DA0DDB0DDC0DDD0DFB
:101E3C00D40B192F5F085E07D400D501D50D5408BB
:101E4C00823EE40055080318013EFF3EE5004B2F8F
:101E5C000130D4000310E00DE10DE20DE30DD40BC5
:101E6C00302FDD1F3A2F3B2F3C2F60140130D40054
:101E7C000310DA0DDB0DDC0DDD0DD40B3E2FFF3026
:101E8C00E4070318E50AFF30E507E21F4E2F4F2F3A
:101E9C002E2FDE01DD1F532F542F702FFF305A05CC
:101EAC00D400FF305B05D500FF305C05D6007F30D9
:101EBC005D05D70057085604550454040319672FC1
:101ECC00682F6B2FDE01DE0A702F601C6E2F6F2FB8
:101EDC00702F682F5E080319742F752FA62F0130F1
:101EEC00E007003003180130E1070030031801301F
:101EFC00E207003003180130E307631C862F872F9D
:101F0C00A62F6008D4006108D5006208D6006308CB
:101F1C00D7000130D800570DD70CD60CD50CD40CEB
:101F2C00D80B912F5708E3005608E2005508E10042
:101F3C005408E0000130E4070318E50A0030E50717
:101F4C006508803AFF0080307F02031DAF2FFF3001
:101F5C006402031CB22FB32FBE2F7F3083120313E6
:101F6C00E3008030E2000030E1000030E000F32FAD
:101F7C00831203136508803AFF0080307F02031D33
:101F8C00C92F013064020318CC2FCD2FD92F00306C
:101F9C0083120313E3000030E2000030E100003054
:101FAC00E000D901F32F831203136408D400540802
:101FBC00DF00FF30E005FF30E1057F30E205003047
:101FCC00E3055F1CEA2FEB2FEC2FE2175F08D40020
:101FDC000310540CD5005508E3005908D4005408DC
:101FEC00E3046308CF006208CE006108CD006008EE
:041FFC00CC0008000D
:10233A00F000700883120313850008008312031348
:10234A000C0EF000700C0139080064008001840A48
:10235A000406031900340406AB29F000831603139C
:10236A00981CB829B929B329700883120313990054
:10237A00080000300A168A11E0210A168A11013073
:10238A000A168A11E0210A168A110800F20083123D
:10239A000313081472080A168A119D210A168A1153
:1023AA008312031388140330F100F10BDA29831224
:1023BA00031388100800F30083120313081073082C
:1023CA000A168A119D210A168A1183120313881488
:1023DA000630F2003030F100F10BF129F20BF1294D
:1023EA0000008312031388100800F6007603031D09
:1023FA00FF29002A0C2A74087F3EF5007508F700A9
:10240A0077080A168A11E0210A168A111D2A023053
:10241A007606031D112A122A1D2A7408BF3EF500EA
:10242A007508F70077080A168A11E0210A168A1138
:10243A000800803083120313B5063908F300380800
:10244A00F2003708F1003608F0003508F7003408C2
:10245A00F6003308F5003208F4000A128A1507223A
:10246A000A168A11730883120313B5007208B4009E
:10247A007108B3007008B2000800F800F401F50111
:10248A007008F200F3017208F6007308F700781C6E
:10249A004F2A502A562A7608F4070318F50A7708AD
:1024AA00F50701300310F60DF70DFF3E031D572AFD
:1024BA000310F80C7808031D632A642A4C2A75084D
:1024CA00F1007408F0000800FB01FC0183120313F9
:1024DA00201C702A712A772A2208FB070318FC0A93
:1024EA002308FC0701300310A20DA30DFF3E031DB4
:1024FA00782A01300310A10CA00CFF3E031D7F2A8D
:10250A0020082104031D8A2A8B2A6B2A7C08A10031
:10251A007B08A0000800F801F901B52A78087307BA
:10252A00F6007408F5000318F50AF81F9D2AF5034A
:10253A007508F700770883120313FF0076088400F2
:10254A000A128A1500200A168A110A168A11CB2144
:10255A000A168A110130F8070318F90A0030F90738
:10256A0078087307F6007408F5000318F50AF81FCF
:10257A00BF2AF5037508F700770883120313FF00D3
:10258A00760884000A128A1500200A168A11003A6F
:10259A00031DD02AD12A932A080000300A168A116C
:1025AA009D210A168A111A30F500F830F400F40B4E
:1025BA00DC2AF50BDC2A000030300A168A11E021E9
:1025CA000A168A110730F5007D30F400F40BEB2A65
:1025DA00F50BEB2A30300A168A11E0210A168A1105
:1025EA000F30F5004730F400F40BF92AF50BF92AFD
:1025FA00FE2A30300A168A11E0210A168A1138306A
:10260A000A168A11E0210A168A110C300A168A1152
:10261A00E0210A168A1106300A168A11E0210A16E2
:10262A008A110800F701F801F701F8013E2B770833
:10263A007107F5007208F4000318F40AF71F262B35
:10264A00F4037408F600760883120313FF00750872
:10265A0084000A128A1500200A168A110A168A119B
:10266A00B2210A168A110130F7070318F80A003056
:10267A00F8077808803AF40080307402031D472B6B
:10268A007308770203184A2B4B2B672B77087107BD
:10269A00F5007208F4000318F40AF71F552BF40327
:1026AA007408F600760883120313FF007508840085
:1026BA000A128A1500200A168A11003A031D662B8F
:1026CA00672B1C2B0800F500831203131F14792BA8
:1026DA001F139F138F2B1F179F138F2B1F139F17C8
:1026EA008F2B1F179F178F2B7508F300F40174089F
:1026FA00003A0319812B8F2B7308013A03196D2BAA
:10270A00033A0319702B013A0319732B073A031979
:10271A00762B8F2B7003031D932B942B9A2B8316E6
:10272A0003130C17831203130C137208031D9E2B39
:10273A009F2BA32B831603139F13B32B8316031309
:10274A009F17B32B1F129F12C92B1F169F12C92B3B
:10275A001F129F16C92B1F169F16C92B7108F3004B
:10276A00F4017408003A0319BB2BC92B7308003A09
:10277A000319A72B013A0319AA2B033A0319AD2B04
:10278A00013A0319B02BC92B08000030FC000030B5
:10279A00FB000030FA000030F9007308720471047B
:1027AA0070040319D92BDA2B272CFD01FD0AEA2B19
:1027BA000130F8000310F00DF10DF20DF30DF80BD6
:1027CA00DF2B0130F8007808FD07F31FED2BEE2B05
:1027DA00DD2B0130F8000310F90DFA0DFB0DFC0D8D
:1027EA00F80BF02B73087702031D052C720876028A
:1027FA00031D052C71087502031D052C700874024F
:10280A00031C082C092C182C7008F4027108031CEC
:10281A00710FF5027208031C720FF6027308031C8B
:10282A00730FF702791401300310F30CF20CF10C58
:10283A00F00CFF3E031D192C0130FD02031D262C4E
:10284A00272CEE2B7C08F3007B08F2007A08F100B3
:10285A007908F0000800F601F11F342C352C3C2CC5
:10286A00F009F109F00A0319F10AF601F60AF31F51
:10287A003F2C402C492CF209F309F20A0319F30AF6
:10288A000130F4007408F606F701F80170087104C3
:10289A000319502C512C882CF501F50A5F2C0130B4
:1028AA000310F00DF10DFF3E031D552C0130F4000D
:1028BA007408F507F11F622C632C542C01300310A5
:1028CA00F70DF80DFF3E031D642C71087302031DFA
:1028DA00702C70087202031C732C742C7B2C7008E9
:1028EA00F2027108031CF303F30277140130031098
:1028FA00F10CF00CFF3E031D7C2C0130F502031D88
:10290A00872C882C632C760803198C2C8D2C922CFE
:10291A00F709F809F70A0319F80A7808F10077089D
:10292A00F0000800831203132408031D9D2C9E2C1B
:10293A00CB2C2008A5002108A6002208A7002308FE
:10294A00A80006300310A50DA60DA70DA80DFF3E81
:10295A00031DA72C2808F3002708F2002608F10017
:10296A002508F0000030F7003D30F6000930F50088
:10297A000030F4000A168A11CA230A168A1170084E
:10298A00FF3E8316031399001811F72C2008A5009F
:10299A002108A6002208A7002308A8000430031073
:1029AA00A50DA60DA70DA80DFF3E031DD42C2808C2
:1029BA00F3002708F2002608F1002508F00000308D
:1029CA00F7003D30F6000930F5000030F4000A1631
:1029DA008A11CA230A168A117008FF3E8316031346
:1029EA0099001815181398161812831203139817BA
:1029FA00181318161811981083160313871707133C
:102A0A000800F200402D831603170814742D83164C
:102A1A0003178814742D831603170815742D83164B
:102A2A0003178815742D831603170816742D831639
:102A3A0003178816742D831603170817742D831627
:102A4A0003178817742D831603170914742D831618
:102A5A0003178914742D831603170915742D831609
:102A6A0003178915742D831603170916742D8316F7
:102A7A0003178916742D7208F000F1017108003AE3
:102A8A000319482D742D7008003A0319082D013ACC
:102A9A0003190C2D033A0319102D013A0319142DA9
:102AAA00073A0319182D013A03191C2D033A031981
:102ABA00202D013A0319242D0F3A0319282D013A22
:102ACA0003192C2D033A0319302D013A0319342D19
:102ADA00073A0319382D013A03193C2D742D0800C1
:102AEA000310720D730DF4007408FA007A08031DBE
:102AFA007F2D802D892D0030F3000030F200003048
:102B0A00F1000030F000EE2D7008F4007108F500B5
:102B1A007208F6007308F7001F300310F70CF60C62
:102B2A00F50CF40CFF3E031D922D7408F80078088A
:102B3A00F900F217FF30F005FF30F105FF30F2051A
:102B4A000030F3059630FA02FA1FAC2DAD2DC72DD1
:102B5A007A08803A973E0318B32DB42DB52D802DEF
:102B6A0001300310F30CF20CF10CF00CFF3E031DC4
:102B7A00B62D0130F4007408FA07031DC52DC62DC1
:102B8A00B52DDE2D20307A02031CCC2DCD2DD92D6A
:102B9A00802D0130F4000310F00DF10DF20DF30D4C
:102BAA00F40BD02D0130FA027A08031DDD2DDE2D3B
:102BBA00CE2D79080319E22DE32DEE2DF009F10946
:102BCA00F209F309F00A0319F10A0319F20A0319BF
:102BDA00F30A080000307005F80000307105F900AA
:102BEA0080307205FA007F307305FB007B087A0497
:102BFA0079047804031D022E032E0B2E0030F300F5
:102C0A000030F2000030F1000030F00000307405AE
:102C1A00F80000307505F90080307605FA007F303B
:102C2A007705FB007B087A0479047804031D1E2EBD
:102C3A001F2E272E0030F7000030F6000030F50076
:102C4A000030F400F31F2A2E2B2E4F2E0030F800EE
:102C5A000030F9000030FA008030FB007008F802FA
:102C6A007108031C710F3A2E3B2EF9027208031CDD
:102C7A00720F402E412EFA027308031C730F462E60
:102C8A00472EFB027B08F3007A08F2007908F1006C
:102C9A007808F000F71F522E532E772E0030F800D6
:102CAA000030F9000030FA008030FB007408F802A6
:102CBA007508031C750F622E632EF9027608031C31
:102CCA00760F682E692EFA027708031C770F6E2E8C
:102CDA006F2EFB027B08F7007A08F6007908F500E8
:102CEA007808F4008030F3068030F706770873021C
:102CFA00031D892E76087202031D892E750871023A
:102D0A00031D892E7408700203188C2E8D2E8F2EA7
:102D1A000310902E03140800F200032F83120313EA
:102D2A001F119F111F129F123D2F831203131F158C
:102D3A009F111F129F123D2F831203131F119F15FC
:102D4A001F129F123D2F831203131F159F151F1267
:102D5A009F123D2F831203131F119F111F169F12DB
:102D6A003D2F831203131F159F111F169F123D2F0C
:102D7A00831203131F119F151F169F123D2F8312D3
:102D8A0003131F159F151F169F123D2F831203133E
:102D9A001F119F111F129F163D2F831203131F1518
:102DAA009F111F129F163D2F831203131F119F1588
:102DBA001F129F163D2F831203131F159F151F12F3
:102DCA009F163D2F831203131F119F111F169F1663
:102DDA003D2F831203131F159F111F169F163D2F98
:102DEA00831203131F119F151F169F163D2F83125F
:102DFA0003131F159F151F169F163D2F7208F0000B
:102E0A00F1017108003A03190B2F3D2F7008003A9F
:102E1A000319932E013A03199A2E033A0319A12E84
:102E2A00013A0319A82E073A0319AF2E013A0319DA
:102E3A00B62E033A0319BD2E013A0319C42E0F3ACE
:102E4A000319CB2E013A0319D22E033A0319D92EAC
:102E5A00013A0319E02E073A0319E72E013A03193A
:102E6A00EE2E033A0319F52E013A0319FC2E3D2FD3
:102E7A003E2F3F2F0000831203139F140800831272
:102E8A000313AC002C0803194B2F4C2F602FA71FDC
:102E9A004F2F502F602F2409AE002509AF002609B5
:102EAA00B0002709B100AE0A0319AF0A0319B00A24
:102EBA000319B10A682F2708B1002608B0002508AF
:102ECA00AF002408AE002708260425042404031DA5
:102EDA006F2F702F792F0030A7000030A600003026
:102EEA00A5000030A400FF2F9630A8002808AD00E6
:102EFA008B2F0130A8002808AD0701300310B10C50
:102F0A00B00CAF0CAE0CFF3E031D832FFE30310513
:102F1A00031D902F912F7E2FAD2F0130A800280876
:102F2A00AD070130AE07003003180130AF0700309B
:102F3A0003180130B007003003180130B10701301F
:102F4A000310B10CB00CAF0CAE0CFF3E031DA52F45
:102F5A00FF303105031DB22FB32F922FBF2F01303F
:102F6A00AD020130A8000310AE0DAF0DB00DB10DCA
:102F7A00A80BB82FB01BC22FC32FC92F02302D02A6
:102F8A000318C82FC92FB42F2D18CC2FCD2FD52F0A
:102F9A00FF30AE05FF30AF057F30B005FF30B10519
:102FAA000310AD0C2D08A800A901AA01AB01183025
:102FBA000310A80DA90DAA0DAB0DFF3E031DDD2FB1
:102FCA002808AE042908AF042A08B0042B08B10463
:102FDA002C080319F12FF22FF72FA71FF52FF62F21
:102FEA00F72FB1173108A7003008A6002F08A5004F
:062FFA002E08A4000800EF
:04400E00D420FF3F7C
:00000001FF
